{
  "_format": "hh-sol-artifact-1",
  "contractName": "MyEpicNFT",
  "sourceName": "contracts/MyEpicNFT.sol",
  "abi": [
    {
      "inputs": [],
      "stateMutability": "nonpayable",
      "type": "constructor"
    },
    {
      "anonymous": false,
      "inputs": [
        {
          "indexed": true,
          "internalType": "address",
          "name": "owner",
          "type": "address"
        },
        {
          "indexed": true,
          "internalType": "address",
          "name": "approved",
          "type": "address"
        },
        {
          "indexed": true,
          "internalType": "uint256",
          "name": "tokenId",
          "type": "uint256"
        }
      ],
      "name": "Approval",
      "type": "event"
    },
    {
      "anonymous": false,
      "inputs": [
        {
          "indexed": true,
          "internalType": "address",
          "name": "owner",
          "type": "address"
        },
        {
          "indexed": true,
          "internalType": "address",
          "name": "operator",
          "type": "address"
        },
        {
          "indexed": false,
          "internalType": "bool",
          "name": "approved",
          "type": "bool"
        }
      ],
      "name": "ApprovalForAll",
      "type": "event"
    },
    {
      "anonymous": false,
      "inputs": [
        {
          "indexed": false,
          "internalType": "address",
          "name": "sender",
          "type": "address"
        },
        {
          "indexed": false,
          "internalType": "uint256",
          "name": "tokenId",
          "type": "uint256"
        }
      ],
      "name": "NewEpicNFTMinted",
      "type": "event"
    },
    {
      "anonymous": false,
      "inputs": [
        {
          "indexed": true,
          "internalType": "address",
          "name": "from",
          "type": "address"
        },
        {
          "indexed": true,
          "internalType": "address",
          "name": "to",
          "type": "address"
        },
        {
          "indexed": true,
          "internalType": "uint256",
          "name": "tokenId",
          "type": "uint256"
        }
      ],
      "name": "Transfer",
      "type": "event"
    },
    {
      "inputs": [
        {
          "internalType": "address",
          "name": "to",
          "type": "address"
        },
        {
          "internalType": "uint256",
          "name": "tokenId",
          "type": "uint256"
        }
      ],
      "name": "approve",
      "outputs": [],
      "stateMutability": "nonpayable",
      "type": "function"
    },
    {
      "inputs": [
        {
          "internalType": "address",
          "name": "owner",
          "type": "address"
        }
      ],
      "name": "balanceOf",
      "outputs": [
        {
          "internalType": "uint256",
          "name": "",
          "type": "uint256"
        }
      ],
      "stateMutability": "view",
      "type": "function"
    },
    {
      "inputs": [
        {
          "internalType": "uint256",
          "name": "tokenId",
          "type": "uint256"
        }
      ],
      "name": "getApproved",
      "outputs": [
        {
          "internalType": "address",
          "name": "",
          "type": "address"
        }
      ],
      "stateMutability": "view",
      "type": "function"
    },
    {
      "inputs": [],
      "name": "getTotalNFTsMintedSoFar",
      "outputs": [
        {
          "internalType": "uint256",
          "name": "",
          "type": "uint256"
        }
      ],
      "stateMutability": "view",
      "type": "function"
    },
    {
      "inputs": [
        {
          "internalType": "address",
          "name": "owner",
          "type": "address"
        },
        {
          "internalType": "address",
          "name": "operator",
          "type": "address"
        }
      ],
      "name": "isApprovedForAll",
      "outputs": [
        {
          "internalType": "bool",
          "name": "",
          "type": "bool"
        }
      ],
      "stateMutability": "view",
      "type": "function"
    },
    {
      "inputs": [],
      "name": "makeAnEpicNFT",
      "outputs": [],
      "stateMutability": "nonpayable",
      "type": "function"
    },
    {
      "inputs": [],
      "name": "name",
      "outputs": [
        {
          "internalType": "string",
          "name": "",
          "type": "string"
        }
      ],
      "stateMutability": "view",
      "type": "function"
    },
    {
      "inputs": [
        {
          "internalType": "uint256",
          "name": "tokenId",
          "type": "uint256"
        }
      ],
      "name": "ownerOf",
      "outputs": [
        {
          "internalType": "address",
          "name": "",
          "type": "address"
        }
      ],
      "stateMutability": "view",
      "type": "function"
    },
    {
      "inputs": [
        {
          "internalType": "uint256",
          "name": "tokenId",
          "type": "uint256"
        }
      ],
      "name": "pickRandomFirstWord",
      "outputs": [
        {
          "internalType": "string",
          "name": "",
          "type": "string"
        }
      ],
      "stateMutability": "view",
      "type": "function"
    },
    {
      "inputs": [
        {
          "internalType": "uint256",
          "name": "tokenId",
          "type": "uint256"
        }
      ],
      "name": "pickRandomSecondWord",
      "outputs": [
        {
          "internalType": "string",
          "name": "",
          "type": "string"
        }
      ],
      "stateMutability": "view",
      "type": "function"
    },
    {
      "inputs": [
        {
          "internalType": "uint256",
          "name": "tokenId",
          "type": "uint256"
        }
      ],
      "name": "pickRandomThirdWord",
      "outputs": [
        {
          "internalType": "string",
          "name": "",
          "type": "string"
        }
      ],
      "stateMutability": "view",
      "type": "function"
    },
    {
      "inputs": [
        {
          "internalType": "address",
          "name": "from",
          "type": "address"
        },
        {
          "internalType": "address",
          "name": "to",
          "type": "address"
        },
        {
          "internalType": "uint256",
          "name": "tokenId",
          "type": "uint256"
        }
      ],
      "name": "safeTransferFrom",
      "outputs": [],
      "stateMutability": "nonpayable",
      "type": "function"
    },
    {
      "inputs": [
        {
          "internalType": "address",
          "name": "from",
          "type": "address"
        },
        {
          "internalType": "address",
          "name": "to",
          "type": "address"
        },
        {
          "internalType": "uint256",
          "name": "tokenId",
          "type": "uint256"
        },
        {
          "internalType": "bytes",
          "name": "_data",
          "type": "bytes"
        }
      ],
      "name": "safeTransferFrom",
      "outputs": [],
      "stateMutability": "nonpayable",
      "type": "function"
    },
    {
      "inputs": [
        {
          "internalType": "address",
          "name": "operator",
          "type": "address"
        },
        {
          "internalType": "bool",
          "name": "approved",
          "type": "bool"
        }
      ],
      "name": "setApprovalForAll",
      "outputs": [],
      "stateMutability": "nonpayable",
      "type": "function"
    },
    {
      "inputs": [
        {
          "internalType": "bytes4",
          "name": "interfaceId",
          "type": "bytes4"
        }
      ],
      "name": "supportsInterface",
      "outputs": [
        {
          "internalType": "bool",
          "name": "",
          "type": "bool"
        }
      ],
      "stateMutability": "view",
      "type": "function"
    },
    {
      "inputs": [],
      "name": "symbol",
      "outputs": [
        {
          "internalType": "string",
          "name": "",
          "type": "string"
        }
      ],
      "stateMutability": "view",
      "type": "function"
    },
    {
      "inputs": [
        {
          "internalType": "uint256",
          "name": "tokenId",
          "type": "uint256"
        }
      ],
      "name": "tokenURI",
      "outputs": [
        {
          "internalType": "string",
          "name": "",
          "type": "string"
        }
      ],
      "stateMutability": "view",
      "type": "function"
    },
    {
      "inputs": [
        {
          "internalType": "address",
          "name": "from",
          "type": "address"
        },
        {
          "internalType": "address",
          "name": "to",
          "type": "address"
        },
        {
          "internalType": "uint256",
          "name": "tokenId",
          "type": "uint256"
        }
      ],
      "name": "transferFrom",
      "outputs": [],
      "stateMutability": "nonpayable",
      "type": "function"
    }
  ],
  "bytecode": "0x608060405260405180610180016040528061014881526020016200568b61014891396009908051906020019062000038929190620018d1565b50604051806101a001604052806040518060400160405280600381526020017f426967000000000000000000000000000000000000000000000000000000000081525081526020016040518060400160405280600581526020017f4372617a7900000000000000000000000000000000000000000000000000000081525081526020016040518060400160405280600481526020017f536c6f770000000000000000000000000000000000000000000000000000000081525081526020016040518060400160405280600781526020017f53757072656d650000000000000000000000000000000000000000000000000081525081526020016040518060400160405280600781526020017f526574697265640000000000000000000000000000000000000000000000000081525081526020016040518060400160405280600381526020017f416365000000000000000000000000000000000000000000000000000000000081525081526020016040518060400160405280600381526020017f426967000000000000000000000000000000000000000000000000000000000081525081526020016040518060400160405280600481526020017f486967680000000000000000000000000000000000000000000000000000000081525081526020016040518060400160405280600581526020017f4769616e7400000000000000000000000000000000000000000000000000000081525081526020016040518060400160405280600681526020017f4c6974746c65000000000000000000000000000000000000000000000000000081525081526020016040518060400160405280600381526020017f4f6c64000000000000000000000000000000000000000000000000000000000081525081526020016040518060400160405280600581526020017f537570657200000000000000000000000000000000000000000000000000000081525081526020016040518060400160405280600781526020017f53757072656d6500000000000000000000000000000000000000000000000000815250815250600a90600d6200035492919062001962565b50604051806109a001604052806040518060400160405280600981526020017f41646a756361746f72000000000000000000000000000000000000000000000081525081526020016040518060400160405280600481526020017f4166726f0000000000000000000000000000000000000000000000000000000081525081526020016040518060400160405280600581526020017f416c69656e00000000000000000000000000000000000000000000000000000081525081526020016040518060400160405280600781526020017f416e74656e6e610000000000000000000000000000000000000000000000000081525081526020016040518060400160405280600481526020017f417175610000000000000000000000000000000000000000000000000000000081525081526020016040518060400160405280600481526020017f42616c640000000000000000000000000000000000000000000000000000000081525081526020016040518060400160405280600681526020017f426172626572000000000000000000000000000000000000000000000000000081525081526020016040518060400160405280600581526020017f426561726400000000000000000000000000000000000000000000000000000081525081526020016040518060400160405280600381526020017f466174000000000000000000000000000000000000000000000000000000000081525081526020016040518060400160405280600a81526020017f4d656368616e6963616c0000000000000000000000000000000000000000000081525081526020016040518060400160405280600481526020017f576173700000000000000000000000000000000000000000000000000000000081525081526020016040518060400160405280600481526020017f4576696c0000000000000000000000000000000000000000000000000000000081525081526020016040518060400160405280600881526020017f436172656c65737300000000000000000000000000000000000000000000000081525081526020016040518060400160405280600381526020017f436174000000000000000000000000000000000000000000000000000000000081525081526020016040518060400160405280600981526020017f436f6d6d616e646572000000000000000000000000000000000000000000000081525081526020016040518060400160405280600d81526020017f436f6d706c6574696f6e6973740000000000000000000000000000000000000081525081526020016040518060400160405280600481526020017f436f6f6c0000000000000000000000000000000000000000000000000000000081525081526020016040518060400160405280600381526020017f436f70000000000000000000000000000000000000000000000000000000000081525081526020016040518060400160405280600a81526020017f43726f6e656e626572670000000000000000000000000000000000000000000081525081526020016040518060400160405280600c81526020017f4375726c792d686169726564000000000000000000000000000000000000000081525081526020016040518060400160405280600781526020017f4379636c6f70730000000000000000000000000000000000000000000000000081525081526020016040518060400160405280600581526020017f44616e647900000000000000000000000000000000000000000000000000000081525081526020016040518060400160405280600681526020017f446f6f667573000000000000000000000000000000000000000000000000000081525081526020016040518060400160405280600681526020017f447265616d79000000000000000000000000000000000000000000000000000081525081526020016040518060400160405280600481526020017f44756d620000000000000000000000000000000000000000000000000000000081525081526020016040518060400160405280600781526020017f45617272696e670000000000000000000000000000000000000000000000000081525081526020016040518060400160405280600881526020017f457965506174636800000000000000000000000000000000000000000000000081525081526020016040518060400160405280600581526020017f46616e637900000000000000000000000000000000000000000000000000000081525081526020016040518060400160405280600681526020017f4661726d6572000000000000000000000000000000000000000000000000000081525081526020016040518060400160405280600781526020017f466173636973740000000000000000000000000000000000000000000000000081525081526020016040518060400160405280600681526020017f5069636b6c65000000000000000000000000000000000000000000000000000081525081526020016040518060400160405280600781526020017f4772616e6470610000000000000000000000000000000000000000000000000081525081526020016040518060400160405280600881526020017f477261746566756c00000000000000000000000000000000000000000000000081525081526020016040518060400160405280600581526020017f477561726400000000000000000000000000000000000000000000000000000081525081526020016040518060400160405280600681526020017f4775696c7479000000000000000000000000000000000000000000000000000081525081526020016040518060400160405280600581526020017f486170707900000000000000000000000000000000000000000000000000000081525081526020016040518060400160405280600881526020017f486f6c6f6772616d00000000000000000000000000000000000000000000000081525081526020016040518060400160405280600881526020017f486177616969616e00000000000000000000000000000000000000000000000081525081526020016040518060400160405280600881526020017f4865616462616e6400000000000000000000000000000000000000000000000081525081526020016040518060400160405280600781526020017f486f706566756c0000000000000000000000000000000000000000000000000081525081526020016040518060400160405280600781526020017f486f74686561640000000000000000000000000000000000000000000000000081525081526020016040518060400160405280600981526020017f496e737572616e6365000000000000000000000000000000000000000000000081525081526020016040518060400160405280600c81526020017f496e76657374696761746f72000000000000000000000000000000000000000081525081526020016040518060400160405280600481526020017f4a6f686e0000000000000000000000000000000000000000000000000000000081525081526020016040518060400160405280600681526020017f4a6f73756b65000000000000000000000000000000000000000000000000000081525081526020016040518060400160405280600881526020017f4a7567676c696e6700000000000000000000000000000000000000000000000081525081526020016040518060400160405280600881526020017f4a756e6b5961726400000000000000000000000000000000000000000000000081525081526020016040518060400160405280600681526020017f4c697a617264000000000000000000000000000000000000000000000000000081525081526020016040518060400160405280600881526020017f4d6178696d756d7300000000000000000000000000000000000000000000000081525081526020016040518060400160405280600681526020017f4d656d6f7279000000000000000000000000000000000000000000000000000081525081526020016040518060400160405280600581526020017f4d69616d6900000000000000000000000000000000000000000000000000000081525081526020016040518060400160405280600a81526020017f4d7973746572696f75730000000000000000000000000000000000000000000081525081526020016040518060400160405280600481526020017f4e6567610000000000000000000000000000000000000000000000000000000081525081526020016040518060400160405280600881526020017f4e6f76656c69737400000000000000000000000000000000000000000000000081525081526020016040518060400160405280600381526020017f476f64000000000000000000000000000000000000000000000000000000000081525081526020016040518060400160405280600781526020017f506c756d6265720000000000000000000000000000000000000000000000000081525081526020016040518060400160405280600781526020017f5175616e74756d0000000000000000000000000000000000000000000000000081525081526020016040518060400160405280600581526020017f526164617200000000000000000000000000000000000000000000000000000081525081526020016040518060400160405280600a81526020017f526576656e676566756c0000000000000000000000000000000000000000000081525081526020016040518060400160405280600581526020017f526f626f7400000000000000000000000000000000000000000000000000000081525081526020016040518060400160405280600881526020017f53616c65736d616e00000000000000000000000000000000000000000000000081525081526020016040518060400160405280600a81526020017f506f6c6963697469616e0000000000000000000000000000000000000000000081525081526020016040518060400160405280600781526020017f536869627579610000000000000000000000000000000000000000000000000081525081526020016040518060400160405280600681526020017f536872696d70000000000000000000000000000000000000000000000000000081525081526020016040518060400160405280600681526020017f53696d706c65000000000000000000000000000000000000000000000000000081525081526020016040518060400160405280600481526020017f4a616d7a0000000000000000000000000000000000000000000000000000000081525081526020016040518060400160405280600981526020017f536f6c696369746f72000000000000000000000000000000000000000000000081525081526020016040518060400160405280600381526020017f46616e000000000000000000000000000000000000000000000000000000000081525081526020016040518060400160405280600881526020017f5375727669766f7200000000000000000000000000000000000000000000000081525081526020016040518060400160405280600581526020017f576569726400000000000000000000000000000000000000000000000000000081525081526020016040518060400160405280600581526020017f546564647900000000000000000000000000000000000000000000000000000081525081526020016040518060400160405280600481526020017f54696e790000000000000000000000000000000000000000000000000000000081525081526020016040518060400160405280600581526020017f546f78696300000000000000000000000000000000000000000000000000000081525081526020016040518060400160405280600581526020017f5669736f7200000000000000000000000000000000000000000000000000000081525081526020016040518060400160405280600781526020017f5765737465726e0000000000000000000000000000000000000000000000000081525081526020016040518060400160405280600581526020017f596f2d596f00000000000000000000000000000000000000000000000000000081525081526020016040518060400160405280600481526020017f5a65726f00000000000000000000000000000000000000000000000000000000815250815250600b90604d62001530929190620019c9565b506040518060e001604052806040518060400160405280600481526020017f5269636b0000000000000000000000000000000000000000000000000000000081525081526020016040518060400160405280600581526020017f4d6f72747900000000000000000000000000000000000000000000000000000081525081526020016040518060400160405280600581526020017f4a6572727900000000000000000000000000000000000000000000000000000081525081526020016040518060400160405280600481526020017f426574680000000000000000000000000000000000000000000000000000000081525081526020016040518060400160405280600781526020017f53756d6d6572730000000000000000000000000000000000000000000000000081525081526020016040518060400160405280601081526020017f4d722e506f6f707962757474686f6c650000000000000000000000000000000081525081526020016040518060400160405280600a81526020017f42697264706572736f6e00000000000000000000000000000000000000000000815250815250600c906007620016e992919062001a30565b50348015620016f757600080fd5b506040518060400160405280601081526020017f5269636b2026204d6f727479204e4654000000000000000000000000000000008152506040518060400160405280600981526020017f5249434b4d4f525459000000000000000000000000000000000000000000000081525081600090805190602001906200177c929190620018d1565b50806001908051906020019062001795929190620018d1565b505050620017e36040518060400160405280600881526020017f4e465420465457210000000000000000000000000000000000000000000000008152506200180560201b620011681760201c565b6032600860006101000a81548160ff021916908360ff16021790555062001c51565b620018a5816040516024016200181c919062001b65565b6040516020818303038152906040527f41304fac000000000000000000000000000000000000000000000000000000007bffffffffffffffffffffffffffffffffffffffffffffffffffffffff19166020820180517bffffffffffffffffffffffffffffffffffffffffffffffffffffffff8381831617835250505050620018a860201b60201c565b50565b60008151905060006a636f6e736f6c652e6c6f679050602083016000808483855afa5050505050565b828054620018df9062001bdb565b90600052602060002090601f0160209004810192826200190357600085556200194f565b82601f106200191e57805160ff19168380011785556200194f565b828001600101855582156200194f579182015b828111156200194e57825182559160200191906001019062001931565b5b5090506200195e919062001a97565b5090565b828054828255906000526020600020908101928215620019b6579160200282015b82811115620019b5578251829080519060200190620019a4929190620018d1565b509160200191906001019062001983565b5b509050620019c5919062001ab6565b5090565b82805482825590600052602060002090810192821562001a1d579160200282015b8281111562001a1c57825182908051906020019062001a0b929190620018d1565b5091602001919060010190620019ea565b5b50905062001a2c919062001ab6565b5090565b82805482825590600052602060002090810192821562001a84579160200282015b8281111562001a8357825182908051906020019062001a72929190620018d1565b509160200191906001019062001a51565b5b50905062001a93919062001ab6565b5090565b5b8082111562001ab257600081600090555060010162001a98565b5090565b5b8082111562001ada576000818162001ad0919062001ade565b5060010162001ab7565b5090565b50805462001aec9062001bdb565b6000825580601f1062001b00575062001b21565b601f01602090049060005260206000209081019062001b20919062001a97565b5b50565b600062001b318262001b89565b62001b3d818562001b94565b935062001b4f81856020860162001ba5565b62001b5a8162001c40565b840191505092915050565b6000602082019050818103600083015262001b81818462001b24565b905092915050565b600081519050919050565b600082825260208201905092915050565b60005b8381101562001bc557808201518184015260208101905062001ba8565b8381111562001bd5576000848401525b50505050565b6000600282049050600182168062001bf457607f821691505b6020821081141562001c0b5762001c0a62001c11565b5b50919050565b7f4e487b7100000000000000000000000000000000000000000000000000000000600052602260045260246000fd5b6000601f19601f8301169050919050565b613a2a8062001c616000396000f3fe608060405234801561001057600080fd5b50600436106101165760003560e01c806370a08231116100a2578063b88d4fde11610071578063b88d4fde14610305578063c575757a14610321578063c87b56dd14610351578063de9d132f14610381578063e985e9c51461038b57610116565b806370a082311461026b57806395d89b411461029b578063a22cb465146102b9578063b187301f146102d557610116565b8063095ea7b3116100e9578063095ea7b3146101b757806323b872dd146101d35780632de38d68146101ef57806342842e0e1461021f5780636352211e1461023b57610116565b806301ffc9a71461011b578063060475901461014b57806306fdde0314610169578063081812fc14610187575b600080fd5b61013560048036038101906101309190612601565b6103bb565b60405161014291906132c5565b60405180910390f35b61015361049d565b6040516101609190613540565b60405180910390f35b6101716104c0565b60405161017e91906132e0565b60405180910390f35b6101a1600480360381019061019c9190612653565b610552565b6040516101ae9190613235565b60405180910390f35b6101d160048036038101906101cc91906125c5565b6105d7565b005b6101ed60048036038101906101e891906124bf565b6106ef565b005b61020960048036038101906102049190612653565b61074f565b60405161021691906132e0565b60405180910390f35b610239600480360381019061023491906124bf565b61086d565b005b61025560048036038101906102509190612653565b61088d565b6040516102629190613235565b60405180910390f35b6102856004803603810190610280919061245a565b61093f565b6040516102929190613540565b60405180910390f35b6102a36109f7565b6040516102b091906132e0565b60405180910390f35b6102d360048036038101906102ce9190612589565b610a89565b005b6102ef60048036038101906102ea9190612653565b610a9f565b6040516102fc91906132e0565b60405180910390f35b61031f600480360381019061031a919061250e565b610bbd565b005b61033b60048036038101906103369190612653565b610c1f565b60405161034891906132e0565b60405180910390f35b61036b60048036038101906103669190612653565b610d3d565b60405161037891906132e0565b60405180910390f35b610389610e8f565b005b6103a560048036038101906103a09190612483565b6110d4565b6040516103b291906132c5565b60405180910390f35b60007f80ac58cd000000000000000000000000000000000000000000000000000000007bffffffffffffffffffffffffffffffffffffffffffffffffffffffff1916827bffffffffffffffffffffffffffffffffffffffffffffffffffffffff1916148061048657507f5b5e139f000000000000000000000000000000000000000000000000000000007bffffffffffffffffffffffffffffffffffffffffffffffffffffffff1916827bffffffffffffffffffffffffffffffffffffffffffffffffffffffff1916145b80610496575061049582611201565b5b9050919050565b60006104b16104ac600761126b565b611279565b6104bb600761126b565b905090565b6060600080546104cf906137df565b80601f01602080910402602001604051908101604052809291908181526020018280546104fb906137df565b80156105485780601f1061051d57610100808354040283529160200191610548565b820191906000526020600020905b81548152906001019060200180831161052b57829003601f168201915b5050505050905090565b600061055d82611312565b61059c576040517f08c379a0000000000000000000000000000000000000000000000000000000008152600401610593906134a0565b60405180910390fd5b6004600083815260200190815260200160002060009054906101000a900473ffffffffffffffffffffffffffffffffffffffff169050919050565b60006105e28261088d565b90508073ffffffffffffffffffffffffffffffffffffffff168373ffffffffffffffffffffffffffffffffffffffff161415610653576040517f08c379a000000000000000000000000000000000000000000000000000000000815260040161064a90613500565b60405180910390fd5b8073ffffffffffffffffffffffffffffffffffffffff1661067261137e565b73ffffffffffffffffffffffffffffffffffffffff1614806106a157506106a08161069b61137e565b6110d4565b5b6106e0576040517f08c379a00000000000000000000000000000000000000000000000000000000081526004016106d7906133e0565b60405180910390fd5b6106ea8383611386565b505050565b6107006106fa61137e565b8261143f565b61073f576040517f08c379a000000000000000000000000000000000000000000000000000000000815260040161073690613520565b60405180910390fd5b61074a83838361151d565b505050565b6060600061078361075f84611779565b60405160200161076f91906131ac565b604051602081830303815290604052611926565b9050600a8054905081610796919061385a565b9050600a81815481106107d2577f4e487b7100000000000000000000000000000000000000000000000000000000600052603260045260246000fd5b9060005260206000200180546107e7906137df565b80601f0160208091040260200160405190810160405280929190818152602001828054610813906137df565b80156108605780601f1061083557610100808354040283529160200191610860565b820191906000526020600020905b81548152906001019060200180831161084357829003601f168201915b5050505050915050919050565b61088883838360405180602001604052806000815250610bbd565b505050565b6000806002600084815260200190815260200160002060009054906101000a900473ffffffffffffffffffffffffffffffffffffffff169050600073ffffffffffffffffffffffffffffffffffffffff168173ffffffffffffffffffffffffffffffffffffffff161415610936576040517f08c379a000000000000000000000000000000000000000000000000000000000815260040161092d90613420565b60405180910390fd5b80915050919050565b60008073ffffffffffffffffffffffffffffffffffffffff168273ffffffffffffffffffffffffffffffffffffffff1614156109b0576040517f08c379a00000000000000000000000000000000000000000000000000000000081526004016109a790613400565b60405180910390fd5b600360008373ffffffffffffffffffffffffffffffffffffffff1673ffffffffffffffffffffffffffffffffffffffff168152602001908152602001600020549050919050565b606060018054610a06906137df565b80601f0160208091040260200160405190810160405280929190818152602001828054610a32906137df565b8015610a7f5780601f10610a5457610100808354040283529160200191610a7f565b820191906000526020600020905b815481529060010190602001808311610a6257829003601f168201915b5050505050905090565b610a9b610a9461137e565b8383611959565b5050565b60606000610ad3610aaf84611779565b604051602001610abf919061318a565b604051602081830303815290604052611926565b9050600b8054905081610ae6919061385a565b9050600b8181548110610b22577f4e487b7100000000000000000000000000000000000000000000000000000000600052603260045260246000fd5b906000526020600020018054610b37906137df565b80601f0160208091040260200160405190810160405280929190818152602001828054610b63906137df565b8015610bb05780601f10610b8557610100808354040283529160200191610bb0565b820191906000526020600020905b815481529060010190602001808311610b9357829003601f168201915b5050505050915050919050565b610bce610bc861137e565b8361143f565b610c0d576040517f08c379a0000000000000000000000000000000000000000000000000000000008152600401610c0490613520565b60405180910390fd5b610c1984848484611ac6565b50505050565b60606000610c53610c2f84611779565b604051602001610c3f9190613168565b604051602081830303815290604052611926565b9050600c8054905081610c66919061385a565b9050600c8181548110610ca2577f4e487b7100000000000000000000000000000000000000000000000000000000600052603260045260246000fd5b906000526020600020018054610cb7906137df565b80601f0160208091040260200160405190810160405280929190818152602001828054610ce3906137df565b8015610d305780601f10610d0557610100808354040283529160200191610d30565b820191906000526020600020905b815481529060010190602001808311610d1357829003601f168201915b5050505050915050919050565b6060610d4882611312565b610d87576040517f08c379a0000000000000000000000000000000000000000000000000000000008152600401610d7e90613480565b60405180910390fd5b6000600660008481526020019081526020016000208054610da7906137df565b80601f0160208091040260200160405190810160405280929190818152602001828054610dd3906137df565b8015610e205780601f10610df557610100808354040283529160200191610e20565b820191906000526020600020905b815481529060010190602001808311610e0357829003601f168201915b505050505090506000610e31611b22565b9050600081511415610e47578192505050610e8a565b600082511115610e7c578082604051602001610e649291906130a8565b60405160208183030381529060405292505050610e8a565b610e8584611b39565b925050505b919050565b6000610e9b600761126b565b9050600860009054906101000a900460ff1660ff168110610ebb57600080fd5b6000610ec68261074f565b90506000610ed383610a9f565b90506000610ee084610c1f565b90506000838383604051602001610ef9939291906130cc565b604051602081830303815290604052905060006009858585604051602001610f2494939291906130fd565b60405160208183030381529060405290506000610f6983610f4484611be0565b604051602001610f559291906131ce565b604051602081830303815290604052611be0565b9050600081604051602001610f7e9190613213565b6040516020818303038152906040529050610fcd6040518060400160405280601581526020017f0a2d2d2d2d2d2d2d2d2d2d2d2d2d2d2d2d2d2d2d2d0000000000000000000000815250611168565b610ff581604051602001610fe19190613146565b604051602081830303815290604052611168565b6110336040518060400160405280601581526020017f2d2d2d2d2d2d2d2d2d2d2d2d2d2d2d2d2d2d2d2d0a0000000000000000000000815250611168565b61103d3389611d9e565b6110478882611dbc565b6110876040518060400160405280600f81526020017f2573206d696e74656420627920257300000000000000000000000000000000008152508933611e30565b6110916007611ecf565b7febb98688741ffa4c7589bf325de30cf7becb63de567842e1ccdb6cb949fdc82c33896040516110c292919061329c565b60405180910390a15050505050505050565b6000600560008473ffffffffffffffffffffffffffffffffffffffff1673ffffffffffffffffffffffffffffffffffffffff16815260200190815260200160002060008373ffffffffffffffffffffffffffffffffffffffff1673ffffffffffffffffffffffffffffffffffffffff16815260200190815260200160002060009054906101000a900460ff16905092915050565b6111fe8160405160240161117c91906132e0565b6040516020818303038152906040527f41304fac000000000000000000000000000000000000000000000000000000007bffffffffffffffffffffffffffffffffffffffffffffffffffffffff19166020820180517bffffffffffffffffffffffffffffffffffffffffffffffffffffffff8381831617835250505050611ee5565b50565b60007f01ffc9a7000000000000000000000000000000000000000000000000000000007bffffffffffffffffffffffffffffffffffffffffffffffffffffffff1916827bffffffffffffffffffffffffffffffffffffffffffffffffffffffff1916149050919050565b600081600001549050919050565b61130f8160405160240161128d9190613540565b6040516020818303038152906040527ff5b1bba9000000000000000000000000000000000000000000000000000000007bffffffffffffffffffffffffffffffffffffffffffffffffffffffff19166020820180517bffffffffffffffffffffffffffffffffffffffffffffffffffffffff8381831617835250505050611ee5565b50565b60008073ffffffffffffffffffffffffffffffffffffffff166002600084815260200190815260200160002060009054906101000a900473ffffffffffffffffffffffffffffffffffffffff1673ffffffffffffffffffffffffffffffffffffffff1614159050919050565b600033905090565b816004600083815260200190815260200160002060006101000a81548173ffffffffffffffffffffffffffffffffffffffff021916908373ffffffffffffffffffffffffffffffffffffffff160217905550808273ffffffffffffffffffffffffffffffffffffffff166113f98361088d565b73ffffffffffffffffffffffffffffffffffffffff167f8c5be1e5ebec7d5bd14f71427d1e84f3dd0314c0f7b2291e5b200ac8c7c3b92560405160405180910390a45050565b600061144a82611312565b611489576040517f08c379a0000000000000000000000000000000000000000000000000000000008152600401611480906133c0565b60405180910390fd5b60006114948361088d565b90508073ffffffffffffffffffffffffffffffffffffffff168473ffffffffffffffffffffffffffffffffffffffff16148061150357508373ffffffffffffffffffffffffffffffffffffffff166114eb84610552565b73ffffffffffffffffffffffffffffffffffffffff16145b80611514575061151381856110d4565b5b91505092915050565b8273ffffffffffffffffffffffffffffffffffffffff1661153d8261088d565b73ffffffffffffffffffffffffffffffffffffffff1614611593576040517f08c379a000000000000000000000000000000000000000000000000000000000815260040161158a906134c0565b60405180910390fd5b600073ffffffffffffffffffffffffffffffffffffffff168273ffffffffffffffffffffffffffffffffffffffff161415611603576040517f08c379a00000000000000000000000000000000000000000000000000000000081526004016115fa90613380565b60405180910390fd5b61160e838383611f0e565b611619600082611386565b6001600360008573ffffffffffffffffffffffffffffffffffffffff1673ffffffffffffffffffffffffffffffffffffffff168152602001908152602001600020600082825461166991906136f5565b925050819055506001600360008473ffffffffffffffffffffffffffffffffffffffff1673ffffffffffffffffffffffffffffffffffffffff16815260200190815260200160002060008282546116c09190613614565b92505081905550816002600083815260200190815260200160002060006101000a81548173ffffffffffffffffffffffffffffffffffffffff021916908373ffffffffffffffffffffffffffffffffffffffff160217905550808273ffffffffffffffffffffffffffffffffffffffff168473ffffffffffffffffffffffffffffffffffffffff167fddf252ad1be2c89b69c2b068fc378daa952ba7f163c4a11628f55a4df523b3ef60405160405180910390a4505050565b606060008214156117c1576040518060400160405280600181526020017f30000000000000000000000000000000000000000000000000000000000000008152509050611921565b600082905060005b600082146117f35780806117dc90613811565b915050600a826117ec919061366a565b91506117c9565b60008167ffffffffffffffff811115611835577f4e487b7100000000000000000000000000000000000000000000000000000000600052604160045260246000fd5b6040519080825280601f01601f1916602001820160405280156118675781602001600182028036833780820191505090505b5090505b6000851461191a5760018261188091906136f5565b9150600a8561188f919061385a565b603061189b9190613614565b60f81b8183815181106118d7577f4e487b7100000000000000000000000000000000000000000000000000000000600052603260045260246000fd5b60200101907effffffffffffffffffffffffffffffffffffffffffffffffffffffffffffff1916908160001a905350600a85611913919061366a565b945061186b565b8093505050505b919050565b6000816040516020016119399190613091565b6040516020818303038152906040528051906020012060001c9050919050565b8173ffffffffffffffffffffffffffffffffffffffff168373ffffffffffffffffffffffffffffffffffffffff1614156119c8576040517f08c379a00000000000000000000000000000000000000000000000000000000081526004016119bf906133a0565b60405180910390fd5b80600560008573ffffffffffffffffffffffffffffffffffffffff1673ffffffffffffffffffffffffffffffffffffffff16815260200190815260200160002060008473ffffffffffffffffffffffffffffffffffffffff1673ffffffffffffffffffffffffffffffffffffffff16815260200190815260200160002060006101000a81548160ff0219169083151502179055508173ffffffffffffffffffffffffffffffffffffffff168373ffffffffffffffffffffffffffffffffffffffff167f17307eab39ab6107e8899845ad3d59bd9653f200f220920489ca2b5937696c3183604051611ab991906132c5565b60405180910390a3505050565b611ad184848461151d565b611add84848484611f13565b611b1c576040517f08c379a0000000000000000000000000000000000000000000000000000000008152600401611b1390613340565b60405180910390fd5b50505050565b606060405180602001604052806000815250905090565b6060611b4482611312565b611b83576040517f08c379a0000000000000000000000000000000000000000000000000000000008152600401611b7a906134e0565b60405180910390fd5b6000611b8d611b22565b90506000815111611bad5760405180602001604052806000815250611bd8565b80611bb784611779565b604051602001611bc89291906130a8565b6040516020818303038152906040525b915050919050565b60606000825190506000811415611c095760405180602001604052806000815250915050611d99565b60006003600283611c1a9190613614565b611c24919061366a565b6004611c30919061369b565b90506000602082611c419190613614565b67ffffffffffffffff811115611c80577f4e487b7100000000000000000000000000000000000000000000000000000000600052604160045260246000fd5b6040519080825280601f01601f191660200182016040528015611cb25781602001600182028036833780820191505090505b50905060006040518060600160405280604081526020016139b5604091399050600181016020830160005b86811015611d565760038101905062ffffff818a015116603f8160121c168401518060081b905060ff603f83600c1c1686015116810190508060081b905060ff603f8360061c1686015116810190508060081b905060ff603f831686015116810190508060e01b90508084526004840193505050611cdd565b506003860660018114611d705760028114611d8057611d8b565b613d3d60f01b6002830352611d8b565b603d60f81b60018303525b508484525050819450505050505b919050565b611db88282604051806020016040528060008152506120aa565b5050565b611dc582611312565b611e04576040517f08c379a0000000000000000000000000000000000000000000000000000000008152600401611dfb90613440565b60405180910390fd5b80600660008481526020019081526020016000209080519060200190611e2b9291906122e6565b505050565b611eca838383604051602401611e4893929190613302565b6040516020818303038152906040527fe3849f79000000000000000000000000000000000000000000000000000000007bffffffffffffffffffffffffffffffffffffffffffffffffffffffff19166020820180517bffffffffffffffffffffffffffffffffffffffffffffffffffffffff8381831617835250505050611ee5565b505050565b6001816000016000828254019250508190555050565b60008151905060006a636f6e736f6c652e6c6f679050602083016000808483855afa5050505050565b505050565b6000611f348473ffffffffffffffffffffffffffffffffffffffff16612105565b1561209d578373ffffffffffffffffffffffffffffffffffffffff1663150b7a02611f5d61137e565b8786866040518563ffffffff1660e01b8152600401611f7f9493929190613250565b602060405180830381600087803b158015611f9957600080fd5b505af1925050508015611fca57506040513d601f19601f82011682018060405250810190611fc7919061262a565b60015b61204d573d8060008114611ffa576040519150601f19603f3d011682016040523d82523d6000602084013e611fff565b606091505b50600081511415612045576040517f08c379a000000000000000000000000000000000000000000000000000000000815260040161203c90613340565b60405180910390fd5b805181602001fd5b63150b7a0260e01b7bffffffffffffffffffffffffffffffffffffffffffffffffffffffff1916817bffffffffffffffffffffffffffffffffffffffffffffffffffffffff1916149150506120a2565b600190505b949350505050565b6120b48383612118565b6120c16000848484611f13565b612100576040517f08c379a00000000000000000000000000000000000000000000000000000000081526004016120f790613340565b60405180910390fd5b505050565b600080823b905060008111915050919050565b600073ffffffffffffffffffffffffffffffffffffffff168273ffffffffffffffffffffffffffffffffffffffff161415612188576040517f08c379a000000000000000000000000000000000000000000000000000000000815260040161217f90613460565b60405180910390fd5b61219181611312565b156121d1576040517f08c379a00000000000000000000000000000000000000000000000000000000081526004016121c890613360565b60405180910390fd5b6121dd60008383611f0e565b6001600360008473ffffffffffffffffffffffffffffffffffffffff1673ffffffffffffffffffffffffffffffffffffffff168152602001908152602001600020600082825461222d9190613614565b92505081905550816002600083815260200190815260200160002060006101000a81548173ffffffffffffffffffffffffffffffffffffffff021916908373ffffffffffffffffffffffffffffffffffffffff160217905550808273ffffffffffffffffffffffffffffffffffffffff16600073ffffffffffffffffffffffffffffffffffffffff167fddf252ad1be2c89b69c2b068fc378daa952ba7f163c4a11628f55a4df523b3ef60405160405180910390a45050565b8280546122f2906137df565b90600052602060002090601f016020900481019282612314576000855561235b565b82601f1061232d57805160ff191683800117855561235b565b8280016001018555821561235b579182015b8281111561235a57825182559160200191906001019061233f565b5b509050612368919061236c565b5090565b5b8082111561238557600081600090555060010161236d565b5090565b600061239c6123978461358c565b61355b565b9050828152602081018484840111156123b457600080fd5b6123bf84828561379d565b509392505050565b6000813590506123d681613958565b92915050565b6000813590506123eb8161396f565b92915050565b60008135905061240081613986565b92915050565b60008151905061241581613986565b92915050565b600082601f83011261242c57600080fd5b813561243c848260208601612389565b91505092915050565b6000813590506124548161399d565b92915050565b60006020828403121561246c57600080fd5b600061247a848285016123c7565b91505092915050565b6000806040838503121561249657600080fd5b60006124a4858286016123c7565b92505060206124b5858286016123c7565b9150509250929050565b6000806000606084860312156124d457600080fd5b60006124e2868287016123c7565b93505060206124f3868287016123c7565b925050604061250486828701612445565b9150509250925092565b6000806000806080858703121561252457600080fd5b6000612532878288016123c7565b9450506020612543878288016123c7565b935050604061255487828801612445565b925050606085013567ffffffffffffffff81111561257157600080fd5b61257d8782880161241b565b91505092959194509250565b6000806040838503121561259c57600080fd5b60006125aa858286016123c7565b92505060206125bb858286016123dc565b9150509250929050565b600080604083850312156125d857600080fd5b60006125e6858286016123c7565b92505060206125f785828601612445565b9150509250929050565b60006020828403121561261357600080fd5b6000612621848285016123f1565b91505092915050565b60006020828403121561263c57600080fd5b600061264a84828501612406565b91505092915050565b60006020828403121561266557600080fd5b600061267384828501612445565b91505092915050565b61268581613729565b82525050565b6126948161373b565b82525050565b60006126a5826135d1565b6126af81856135e7565b93506126bf8185602086016137ac565b6126c881613947565b840191505092915050565b60006126de826135dc565b6126e881856135f8565b93506126f88185602086016137ac565b61270181613947565b840191505092915050565b6000612717826135dc565b6127218185613609565b93506127318185602086016137ac565b80840191505092915050565b6000815461274a816137df565b6127548186613609565b9450600182166000811461276f5760018114612780576127b3565b60ff198316865281860193506127b3565b612789856135bc565b60005b838110156127ab5781548189015260018201915060208101905061278c565b838801955050505b50505092915050565b60006127c9602583613609565b91507f68747470733a2f2f6e6674707265766965772e30786465762e636f6465732f3f60008301527f636f64653d0000000000000000000000000000000000000000000000000000006020830152602582019050919050565b600061282f6032836135f8565b91507f4552433732313a207472616e7366657220746f206e6f6e20455243373231526560008301527f63656976657220696d706c656d656e74657200000000000000000000000000006020830152604082019050919050565b6000612895601c836135f8565b91507f4552433732313a20746f6b656e20616c7265616479206d696e746564000000006000830152602082019050919050565b60006128d5600a83613609565b91507f54484952445f574f5244000000000000000000000000000000000000000000006000830152600a82019050919050565b60006129156024836135f8565b91507f4552433732313a207472616e7366657220746f20746865207a65726f2061646460008301527f72657373000000000000000000000000000000000000000000000000000000006020830152604082019050919050565b600061297b6019836135f8565b91507f4552433732313a20617070726f766520746f2063616c6c6572000000000000006000830152602082019050919050565b60006129bb600b83613609565b91507f5345434f4e445f574f52440000000000000000000000000000000000000000006000830152600b82019050919050565b60006129fb602c836135f8565b91507f4552433732313a206f70657261746f7220717565727920666f72206e6f6e657860008301527f697374656e7420746f6b656e00000000000000000000000000000000000000006020830152604082019050919050565b6000612a61600d83613609565b91507f3c2f746578743e3c2f7376673e000000000000000000000000000000000000006000830152600d82019050919050565b6000612aa1600a83613609565b91507f46495253545f774f5244000000000000000000000000000000000000000000006000830152600a82019050919050565b6000612ae1607383613609565b91507f222c20226465736372697074696f6e223a20224120636f6c6c656374696f6e2060008301527f6f66205269636b2026204d6f7274792028706f74656e7469616c29206368617260208301527f6163746572206e616d65732e222c2022696d616765223a2022646174613a696d60408301527f6167652f7376672b786d6c3b6261736536342c000000000000000000000000006060830152607382019050919050565b6000612b936038836135f8565b91507f4552433732313a20617070726f76652063616c6c6572206973206e6f74206f7760008301527f6e6572206e6f7220617070726f76656420666f7220616c6c00000000000000006020830152604082019050919050565b6000612bf9602a836135f8565b91507f4552433732313a2062616c616e636520717565727920666f7220746865207a6560008301527f726f2061646472657373000000000000000000000000000000000000000000006020830152604082019050919050565b6000612c5f6029836135f8565b91507f4552433732313a206f776e657220717565727920666f72206e6f6e657869737460008301527f656e7420746f6b656e00000000000000000000000000000000000000000000006020830152604082019050919050565b6000612cc5602e836135f8565b91507f45524337323155524953746f726167653a2055524920736574206f66206e6f6e60008301527f6578697374656e7420746f6b656e0000000000000000000000000000000000006020830152604082019050919050565b6000612d2b600283613609565b91507f227d0000000000000000000000000000000000000000000000000000000000006000830152600282019050919050565b6000612d6b6020836135f8565b91507f4552433732313a206d696e7420746f20746865207a65726f20616464726573736000830152602082019050919050565b6000612dab6031836135f8565b91507f45524337323155524953746f726167653a2055524920717565727920666f722060008301527f6e6f6e6578697374656e7420746f6b656e0000000000000000000000000000006020830152604082019050919050565b6000612e11602c836135f8565b91507f4552433732313a20617070726f76656420717565727920666f72206e6f6e657860008301527f697374656e7420746f6b656e00000000000000000000000000000000000000006020830152604082019050919050565b6000612e776029836135f8565b91507f4552433732313a207472616e73666572206f6620746f6b656e2074686174206960008301527f73206e6f74206f776e00000000000000000000000000000000000000000000006020830152604082019050919050565b6000612edd602f836135f8565b91507f4552433732314d657461646174613a2055524920717565727920666f72206e6f60008301527f6e6578697374656e7420746f6b656e00000000000000000000000000000000006020830152604082019050919050565b6000612f43600a83613609565b91507f7b226e616d65223a2022000000000000000000000000000000000000000000006000830152600a82019050919050565b6000612f836021836135f8565b91507f4552433732313a20617070726f76616c20746f2063757272656e74206f776e6560008301527f72000000000000000000000000000000000000000000000000000000000000006020830152604082019050919050565b6000612fe9601d83613609565b91507f646174613a6170706c69636174696f6e2f6a736f6e3b6261736536342c0000006000830152601d82019050919050565b60006130296031836135f8565b91507f4552433732313a207472616e736665722063616c6c6572206973206e6f74206f60008301527f776e6572206e6f7220617070726f7665640000000000000000000000000000006020830152604082019050919050565b61308b81613793565b82525050565b600061309d828461270c565b915081905092915050565b60006130b4828561270c565b91506130c0828461270c565b91508190509392505050565b60006130d8828661270c565b91506130e4828561270c565b91506130f0828461270c565b9150819050949350505050565b6000613109828761273d565b9150613115828661270c565b9150613121828561270c565b915061312d828461270c565b915061313882612a54565b915081905095945050505050565b6000613151826127bc565b915061315d828461270c565b915081905092915050565b6000613173826128c8565b915061317f828461270c565b915081905092915050565b6000613195826129ae565b91506131a1828461270c565b915081905092915050565b60006131b782612a94565b91506131c3828461270c565b915081905092915050565b60006131d982612f36565b91506131e5828561270c565b91506131f082612ad4565b91506131fc828461270c565b915061320782612d1e565b91508190509392505050565b600061321e82612fdc565b915061322a828461270c565b915081905092915050565b600060208201905061324a600083018461267c565b92915050565b6000608082019050613265600083018761267c565b613272602083018661267c565b61327f6040830185613082565b8181036060830152613291818461269a565b905095945050505050565b60006040820190506132b1600083018561267c565b6132be6020830184613082565b9392505050565b60006020820190506132da600083018461268b565b92915050565b600060208201905081810360008301526132fa81846126d3565b905092915050565b6000606082019050818103600083015261331c81866126d3565b905061332b6020830185613082565b613338604083018461267c565b949350505050565b6000602082019050818103600083015261335981612822565b9050919050565b6000602082019050818103600083015261337981612888565b9050919050565b6000602082019050818103600083015261339981612908565b9050919050565b600060208201905081810360008301526133b98161296e565b9050919050565b600060208201905081810360008301526133d9816129ee565b9050919050565b600060208201905081810360008301526133f981612b86565b9050919050565b6000602082019050818103600083015261341981612bec565b9050919050565b6000602082019050818103600083015261343981612c52565b9050919050565b6000602082019050818103600083015261345981612cb8565b9050919050565b6000602082019050818103600083015261347981612d5e565b9050919050565b6000602082019050818103600083015261349981612d9e565b9050919050565b600060208201905081810360008301526134b981612e04565b9050919050565b600060208201905081810360008301526134d981612e6a565b9050919050565b600060208201905081810360008301526134f981612ed0565b9050919050565b6000602082019050818103600083015261351981612f76565b9050919050565b600060208201905081810360008301526135398161301c565b9050919050565b60006020820190506135556000830184613082565b92915050565b6000604051905081810181811067ffffffffffffffff8211171561358257613581613918565b5b8060405250919050565b600067ffffffffffffffff8211156135a7576135a6613918565b5b601f19601f8301169050602081019050919050565b60008190508160005260206000209050919050565b600081519050919050565b600081519050919050565b600082825260208201905092915050565b600082825260208201905092915050565b600081905092915050565b600061361f82613793565b915061362a83613793565b9250827fffffffffffffffffffffffffffffffffffffffffffffffffffffffffffffffff0382111561365f5761365e61388b565b5b828201905092915050565b600061367582613793565b915061368083613793565b9250826136905761368f6138ba565b5b828204905092915050565b60006136a682613793565b91506136b183613793565b9250817fffffffffffffffffffffffffffffffffffffffffffffffffffffffffffffffff04831182151516156136ea576136e961388b565b5b828202905092915050565b600061370082613793565b915061370b83613793565b92508282101561371e5761371d61388b565b5b828203905092915050565b600061373482613773565b9050919050565b60008115159050919050565b60007fffffffff0000000000000000000000000000000000000000000000000000000082169050919050565b600073ffffffffffffffffffffffffffffffffffffffff82169050919050565b6000819050919050565b82818337600083830152505050565b60005b838110156137ca5780820151818401526020810190506137af565b838111156137d9576000848401525b50505050565b600060028204905060018216806137f757607f821691505b6020821081141561380b5761380a6138e9565b5b50919050565b600061381c82613793565b91507fffffffffffffffffffffffffffffffffffffffffffffffffffffffffffffffff82141561384f5761384e61388b565b5b600182019050919050565b600061386582613793565b915061387083613793565b9250826138805761387f6138ba565b5b828206905092915050565b7f4e487b7100000000000000000000000000000000000000000000000000000000600052601160045260246000fd5b7f4e487b7100000000000000000000000000000000000000000000000000000000600052601260045260246000fd5b7f4e487b7100000000000000000000000000000000000000000000000000000000600052602260045260246000fd5b7f4e487b7100000000000000000000000000000000000000000000000000000000600052604160045260246000fd5b6000601f19601f8301169050919050565b61396181613729565b811461396c57600080fd5b50565b6139788161373b565b811461398357600080fd5b50565b61398f81613747565b811461399a57600080fd5b50565b6139a681613793565b81146139b157600080fd5b5056fe4142434445464748494a4b4c4d4e4f505152535455565758595a6162636465666768696a6b6c6d6e6f707172737475767778797a303132333435363738392b2fa2646970667358221220f704c5ff6323778cabe7fbe08e85c5731615d26fe32ebd0754f6d2848926c2cd64736f6c634300080000333c73766720786d6c6e733d27687474703a2f2f7777772e77332e6f72672f323030302f73766727207072657365727665417370656374526174696f3d27784d696e594d696e206d656574272076696577426f783d273020302033353020333530273e3c7374796c653e2e62617365207b2066696c6c3a20233031423443363b20666f6e742d66616d696c793a2073616e732d73657269663b20666f6e742d73697a653a20323470783b20666f6e742d7765696768743a3730303b7d3c2f7374796c653e3c726563742077696474683d273130302527206865696768743d2731303025272066696c6c3d272342454535464427202f3e3c7465787420783d273530252720793d273530252720636c6173733d27626173652720646f6d696e616e742d626173656c696e653d276d6964646c652720746578742d616e63686f723d276d6964646c65273e",
  "linkReferences": {},
  "deployedLinkReferences": {}
}