{
  "_format": "hh-sol-artifact-1",
  "contractName": "MyEpicNFT",
  "sourceName": "contracts/MyEpicNFT.sol",
  "abi": [
    {
      "inputs": [],
      "stateMutability": "nonpayable",
      "type": "constructor"
    },
    {
      "anonymous": false,
      "inputs": [
        {
          "indexed": true,
          "internalType": "address",
          "name": "owner",
          "type": "address"
        },
        {
          "indexed": true,
          "internalType": "address",
          "name": "approved",
          "type": "address"
        },
        {
          "indexed": true,
          "internalType": "uint256",
          "name": "tokenId",
          "type": "uint256"
        }
      ],
      "name": "Approval",
      "type": "event"
    },
    {
      "anonymous": false,
      "inputs": [
        {
          "indexed": true,
          "internalType": "address",
          "name": "owner",
          "type": "address"
        },
        {
          "indexed": true,
          "internalType": "address",
          "name": "operator",
          "type": "address"
        },
        {
          "indexed": false,
          "internalType": "bool",
          "name": "approved",
          "type": "bool"
        }
      ],
      "name": "ApprovalForAll",
      "type": "event"
    },
    {
      "anonymous": false,
      "inputs": [
        {
          "indexed": false,
          "internalType": "address",
          "name": "sender",
          "type": "address"
        },
        {
          "indexed": false,
          "internalType": "uint256",
          "name": "tokenId",
          "type": "uint256"
        }
      ],
      "name": "NewEpicNFTMinted",
      "type": "event"
    },
    {
      "anonymous": false,
      "inputs": [
        {
          "indexed": true,
          "internalType": "address",
          "name": "from",
          "type": "address"
        },
        {
          "indexed": true,
          "internalType": "address",
          "name": "to",
          "type": "address"
        },
        {
          "indexed": true,
          "internalType": "uint256",
          "name": "tokenId",
          "type": "uint256"
        }
      ],
      "name": "Transfer",
      "type": "event"
    },
    {
      "inputs": [
        {
          "internalType": "address",
          "name": "to",
          "type": "address"
        },
        {
          "internalType": "uint256",
          "name": "tokenId",
          "type": "uint256"
        }
      ],
      "name": "approve",
      "outputs": [],
      "stateMutability": "nonpayable",
      "type": "function"
    },
    {
      "inputs": [
        {
          "internalType": "address",
          "name": "owner",
          "type": "address"
        }
      ],
      "name": "balanceOf",
      "outputs": [
        {
          "internalType": "uint256",
          "name": "",
          "type": "uint256"
        }
      ],
      "stateMutability": "view",
      "type": "function"
    },
    {
      "inputs": [
        {
          "internalType": "uint256",
          "name": "tokenId",
          "type": "uint256"
        }
      ],
      "name": "getApproved",
      "outputs": [
        {
          "internalType": "address",
          "name": "",
          "type": "address"
        }
      ],
      "stateMutability": "view",
      "type": "function"
    },
    {
      "inputs": [],
      "name": "getTotalNFTsMintedSoFar",
      "outputs": [
        {
          "internalType": "uint256",
          "name": "",
          "type": "uint256"
        }
      ],
      "stateMutability": "view",
      "type": "function"
    },
    {
      "inputs": [
        {
          "internalType": "address",
          "name": "owner",
          "type": "address"
        },
        {
          "internalType": "address",
          "name": "operator",
          "type": "address"
        }
      ],
      "name": "isApprovedForAll",
      "outputs": [
        {
          "internalType": "bool",
          "name": "",
          "type": "bool"
        }
      ],
      "stateMutability": "view",
      "type": "function"
    },
    {
      "inputs": [
        {
          "internalType": "string",
          "name": "doodle",
          "type": "string"
        }
      ],
      "name": "makeAnEpicNFT",
      "outputs": [],
      "stateMutability": "nonpayable",
      "type": "function"
    },
    {
      "inputs": [],
      "name": "name",
      "outputs": [
        {
          "internalType": "string",
          "name": "",
          "type": "string"
        }
      ],
      "stateMutability": "view",
      "type": "function"
    },
    {
      "inputs": [
        {
          "internalType": "uint256",
          "name": "tokenId",
          "type": "uint256"
        }
      ],
      "name": "ownerOf",
      "outputs": [
        {
          "internalType": "address",
          "name": "",
          "type": "address"
        }
      ],
      "stateMutability": "view",
      "type": "function"
    },
    {
      "inputs": [
        {
          "internalType": "address",
          "name": "from",
          "type": "address"
        },
        {
          "internalType": "address",
          "name": "to",
          "type": "address"
        },
        {
          "internalType": "uint256",
          "name": "tokenId",
          "type": "uint256"
        }
      ],
      "name": "safeTransferFrom",
      "outputs": [],
      "stateMutability": "nonpayable",
      "type": "function"
    },
    {
      "inputs": [
        {
          "internalType": "address",
          "name": "from",
          "type": "address"
        },
        {
          "internalType": "address",
          "name": "to",
          "type": "address"
        },
        {
          "internalType": "uint256",
          "name": "tokenId",
          "type": "uint256"
        },
        {
          "internalType": "bytes",
          "name": "_data",
          "type": "bytes"
        }
      ],
      "name": "safeTransferFrom",
      "outputs": [],
      "stateMutability": "nonpayable",
      "type": "function"
    },
    {
      "inputs": [
        {
          "internalType": "address",
          "name": "operator",
          "type": "address"
        },
        {
          "internalType": "bool",
          "name": "approved",
          "type": "bool"
        }
      ],
      "name": "setApprovalForAll",
      "outputs": [],
      "stateMutability": "nonpayable",
      "type": "function"
    },
    {
      "inputs": [
        {
          "internalType": "bytes4",
          "name": "interfaceId",
          "type": "bytes4"
        }
      ],
      "name": "supportsInterface",
      "outputs": [
        {
          "internalType": "bool",
          "name": "",
          "type": "bool"
        }
      ],
      "stateMutability": "view",
      "type": "function"
    },
    {
      "inputs": [],
      "name": "symbol",
      "outputs": [
        {
          "internalType": "string",
          "name": "",
          "type": "string"
        }
      ],
      "stateMutability": "view",
      "type": "function"
    },
    {
      "inputs": [
        {
          "internalType": "uint256",
          "name": "tokenId",
          "type": "uint256"
        }
      ],
      "name": "tokenURI",
      "outputs": [
        {
          "internalType": "string",
          "name": "",
          "type": "string"
        }
      ],
      "stateMutability": "view",
      "type": "function"
    },
    {
      "inputs": [
        {
          "internalType": "address",
          "name": "from",
          "type": "address"
        },
        {
          "internalType": "address",
          "name": "to",
          "type": "address"
        },
        {
          "internalType": "uint256",
          "name": "tokenId",
          "type": "uint256"
        }
      ],
      "name": "transferFrom",
      "outputs": [],
      "stateMutability": "nonpayable",
      "type": "function"
    }
  ],
  "bytecode": "0x60806040523480156200001157600080fd5b506040518060400160405280600a81526020017f446f6f646c65204e4654000000000000000000000000000000000000000000008152506040518060400160405280600681526020017f444f4f444c450000000000000000000000000000000000000000000000000000815250816000908051906020019062000096929190620001eb565b508060019080519060200190620000af929190620001eb565b505050620000fd6040518060400160405280600881526020017f4e465420465457210000000000000000000000000000000000000000000000008152506200011f60201b62000d061760201c565b6032600860006101000a81548160ff021916908360ff160217905550620003c8565b620001bf81604051602401620001369190620002dc565b6040516020818303038152906040527f41304fac000000000000000000000000000000000000000000000000000000007bffffffffffffffffffffffffffffffffffffffffffffffffffffffff19166020820180517bffffffffffffffffffffffffffffffffffffffffffffffffffffffff8381831617835250505050620001c260201b60201c565b50565b60008151905060006a636f6e736f6c652e6c6f679050602083016000808483855afa5050505050565b828054620001f99062000352565b90600052602060002090601f0160209004810192826200021d576000855562000269565b82601f106200023857805160ff191683800117855562000269565b8280016001018555821562000269579182015b82811115620002685782518255916020019190600101906200024b565b5b5090506200027891906200027c565b5090565b5b80821115620002975760008160009055506001016200027d565b5090565b6000620002a88262000300565b620002b481856200030b565b9350620002c68185602086016200031c565b620002d181620003b7565b840191505092915050565b60006020820190508181036000830152620002f881846200029b565b905092915050565b600081519050919050565b600082825260208201905092915050565b60005b838110156200033c5780820151818401526020810190506200031f565b838111156200034c576000848401525b50505050565b600060028204905060018216806200036b57607f821691505b6020821081141562000382576200038162000388565b5b50919050565b7f4e487b7100000000000000000000000000000000000000000000000000000000600052602260045260246000fd5b6000601f19601f8301169050919050565b61339780620003d86000396000f3fe608060405234801561001057600080fd5b50600436106100f55760003560e01c806342842e0e11610097578063a22cb46511610066578063a22cb46514610284578063b88d4fde146102a0578063c87b56dd146102bc578063e985e9c5146102ec576100f5565b806342842e0e146101ea5780636352211e1461020657806370a082311461023657806395d89b4114610266576100f5565b8063081812fc116100d3578063081812fc14610166578063095ea7b31461019657806323b872dd146101b257806339fa8daf146101ce576100f5565b806301ffc9a7146100fa578063060475901461012a57806306fdde0314610148575b600080fd5b610114600480360381019061010f91906121d4565b61031c565b6040516101219190612c17565b60405180910390f35b6101326103fe565b60405161013f9190612e92565b60405180910390f35b610150610421565b60405161015d9190612c32565b60405180910390f35b610180600480360381019061017b9190612267565b6104b3565b60405161018d9190612b87565b60405180910390f35b6101b060048036038101906101ab9190612198565b610538565b005b6101cc60048036038101906101c79190612092565b610650565b005b6101e860048036038101906101e39190612226565b6106b0565b005b61020460048036038101906101ff9190612092565b61088c565b005b610220600480360381019061021b9190612267565b6108ac565b60405161022d9190612b87565b60405180910390f35b610250600480360381019061024b919061202d565b61095e565b60405161025d9190612e92565b60405180910390f35b61026e610a16565b60405161027b9190612c32565b60405180910390f35b61029e6004803603810190610299919061215c565b610aa8565b005b6102ba60048036038101906102b591906120e1565b610abe565b005b6102d660048036038101906102d19190612267565b610b20565b6040516102e39190612c32565b60405180910390f35b61030660048036038101906103019190612056565b610c72565b6040516103139190612c17565b60405180910390f35b60007f80ac58cd000000000000000000000000000000000000000000000000000000007bffffffffffffffffffffffffffffffffffffffffffffffffffffffff1916827bffffffffffffffffffffffffffffffffffffffffffffffffffffffff191614806103e757507f5b5e139f000000000000000000000000000000000000000000000000000000007bffffffffffffffffffffffffffffffffffffffffffffffffffffffff1916827bffffffffffffffffffffffffffffffffffffffffffffffffffffffff1916145b806103f757506103f682610d9f565b5b9050919050565b600061041261040d6007610e09565b610e17565b61041c6007610e09565b905090565b6060600080546104309061314c565b80601f016020809104026020016040519081016040528092919081815260200182805461045c9061314c565b80156104a95780601f1061047e576101008083540402835291602001916104a9565b820191906000526020600020905b81548152906001019060200180831161048c57829003601f168201915b5050505050905090565b60006104be82610eb0565b6104fd576040517f08c379a00000000000000000000000000000000000000000000000000000000081526004016104f490612df2565b60405180910390fd5b6004600083815260200190815260200160002060009054906101000a900473ffffffffffffffffffffffffffffffffffffffff169050919050565b6000610543826108ac565b90508073ffffffffffffffffffffffffffffffffffffffff168373ffffffffffffffffffffffffffffffffffffffff1614156105b4576040517f08c379a00000000000000000000000000000000000000000000000000000000081526004016105ab90612e52565b60405180910390fd5b8073ffffffffffffffffffffffffffffffffffffffff166105d3610f1c565b73ffffffffffffffffffffffffffffffffffffffff1614806106025750610601816105fc610f1c565b610c72565b5b610641576040517f08c379a000000000000000000000000000000000000000000000000000000000815260040161063890612d32565b60405180910390fd5b61064b8383610f24565b505050565b61066161065b610f1c565b82610fdd565b6106a0576040517f08c379a000000000000000000000000000000000000000000000000000000000815260040161069790612e72565b60405180910390fd5b6106ab8383836110bb565b505050565b60006106bc6007610e09565b905060006040518060400160405280600a81526020017f446f6f646c65204e465400000000000000000000000000000000000000000000815250905060006107248285604051602001610710929190612b20565b604051602081830303815290604052611317565b90506000816040516020016107399190612b65565b60405160208183030381529060405290506107886040518060400160405280601581526020017f0a2d2d2d2d2d2d2d2d2d2d2d2d2d2d2d2d2d2d2d2d0000000000000000000000815250610d06565b6107b08160405160200161079c9190612afe565b604051602081830303815290604052610d06565b6107ee6040518060400160405280601581526020017f2d2d2d2d2d2d2d2d2d2d2d2d2d2d2d2d2d2d2d2d0a0000000000000000000000815250610d06565b6107f833856114d5565b61080284826114f3565b6108426040518060400160405280600f81526020017f2573206d696e74656420627920257300000000000000000000000000000000008152508533611567565b61084c6007611606565b7febb98688741ffa4c7589bf325de30cf7becb63de567842e1ccdb6cb949fdc82c338560405161087d929190612bee565b60405180910390a15050505050565b6108a783838360405180602001604052806000815250610abe565b505050565b6000806002600084815260200190815260200160002060009054906101000a900473ffffffffffffffffffffffffffffffffffffffff169050600073ffffffffffffffffffffffffffffffffffffffff168173ffffffffffffffffffffffffffffffffffffffff161415610955576040517f08c379a000000000000000000000000000000000000000000000000000000000815260040161094c90612d72565b60405180910390fd5b80915050919050565b60008073ffffffffffffffffffffffffffffffffffffffff168273ffffffffffffffffffffffffffffffffffffffff1614156109cf576040517f08c379a00000000000000000000000000000000000000000000000000000000081526004016109c690612d52565b60405180910390fd5b600360008373ffffffffffffffffffffffffffffffffffffffff1673ffffffffffffffffffffffffffffffffffffffff168152602001908152602001600020549050919050565b606060018054610a259061314c565b80601f0160208091040260200160405190810160405280929190818152602001828054610a519061314c565b8015610a9e5780601f10610a7357610100808354040283529160200191610a9e565b820191906000526020600020905b815481529060010190602001808311610a8157829003601f168201915b5050505050905090565b610aba610ab3610f1c565b838361161c565b5050565b610acf610ac9610f1c565b83610fdd565b610b0e576040517f08c379a0000000000000000000000000000000000000000000000000000000008152600401610b0590612e72565b60405180910390fd5b610b1a84848484611789565b50505050565b6060610b2b82610eb0565b610b6a576040517f08c379a0000000000000000000000000000000000000000000000000000000008152600401610b6190612dd2565b60405180910390fd5b6000600660008481526020019081526020016000208054610b8a9061314c565b80601f0160208091040260200160405190810160405280929190818152602001828054610bb69061314c565b8015610c035780601f10610bd857610100808354040283529160200191610c03565b820191906000526020600020905b815481529060010190602001808311610be657829003601f168201915b505050505090506000610c146117e5565b9050600081511415610c2a578192505050610c6d565b600082511115610c5f578082604051602001610c47929190612ada565b60405160208183030381529060405292505050610c6d565b610c68846117fc565b925050505b919050565b6000600560008473ffffffffffffffffffffffffffffffffffffffff1673ffffffffffffffffffffffffffffffffffffffff16815260200190815260200160002060008373ffffffffffffffffffffffffffffffffffffffff1673ffffffffffffffffffffffffffffffffffffffff16815260200190815260200160002060009054906101000a900460ff16905092915050565b610d9c81604051602401610d1a9190612c32565b6040516020818303038152906040527f41304fac000000000000000000000000000000000000000000000000000000007bffffffffffffffffffffffffffffffffffffffffffffffffffffffff19166020820180517bffffffffffffffffffffffffffffffffffffffffffffffffffffffff83818316178352505050506118a3565b50565b60007f01ffc9a7000000000000000000000000000000000000000000000000000000007bffffffffffffffffffffffffffffffffffffffffffffffffffffffff1916827bffffffffffffffffffffffffffffffffffffffffffffffffffffffff1916149050919050565b600081600001549050919050565b610ead81604051602401610e2b9190612e92565b6040516020818303038152906040527ff5b1bba9000000000000000000000000000000000000000000000000000000007bffffffffffffffffffffffffffffffffffffffffffffffffffffffff19166020820180517bffffffffffffffffffffffffffffffffffffffffffffffffffffffff83818316178352505050506118a3565b50565b60008073ffffffffffffffffffffffffffffffffffffffff166002600084815260200190815260200160002060009054906101000a900473ffffffffffffffffffffffffffffffffffffffff1673ffffffffffffffffffffffffffffffffffffffff1614159050919050565b600033905090565b816004600083815260200190815260200160002060006101000a81548173ffffffffffffffffffffffffffffffffffffffff021916908373ffffffffffffffffffffffffffffffffffffffff160217905550808273ffffffffffffffffffffffffffffffffffffffff16610f97836108ac565b73ffffffffffffffffffffffffffffffffffffffff167f8c5be1e5ebec7d5bd14f71427d1e84f3dd0314c0f7b2291e5b200ac8c7c3b92560405160405180910390a45050565b6000610fe882610eb0565b611027576040517f08c379a000000000000000000000000000000000000000000000000000000000815260040161101e90612d12565b60405180910390fd5b6000611032836108ac565b90508073ffffffffffffffffffffffffffffffffffffffff168473ffffffffffffffffffffffffffffffffffffffff1614806110a157508373ffffffffffffffffffffffffffffffffffffffff16611089846104b3565b73ffffffffffffffffffffffffffffffffffffffff16145b806110b257506110b18185610c72565b5b91505092915050565b8273ffffffffffffffffffffffffffffffffffffffff166110db826108ac565b73ffffffffffffffffffffffffffffffffffffffff1614611131576040517f08c379a000000000000000000000000000000000000000000000000000000000815260040161112890612e12565b60405180910390fd5b600073ffffffffffffffffffffffffffffffffffffffff168273ffffffffffffffffffffffffffffffffffffffff1614156111a1576040517f08c379a000000000000000000000000000000000000000000000000000000000815260040161119890612cd2565b60405180910390fd5b6111ac8383836118cc565b6111b7600082610f24565b6001600360008573ffffffffffffffffffffffffffffffffffffffff1673ffffffffffffffffffffffffffffffffffffffff16815260200190815260200160002060008282546112079190613062565b925050819055506001600360008473ffffffffffffffffffffffffffffffffffffffff1673ffffffffffffffffffffffffffffffffffffffff168152602001908152602001600020600082825461125e9190612f81565b92505081905550816002600083815260200190815260200160002060006101000a81548173ffffffffffffffffffffffffffffffffffffffff021916908373ffffffffffffffffffffffffffffffffffffffff160217905550808273ffffffffffffffffffffffffffffffffffffffff168473ffffffffffffffffffffffffffffffffffffffff167fddf252ad1be2c89b69c2b068fc378daa952ba7f163c4a11628f55a4df523b3ef60405160405180910390a4505050565b6060600082519050600081141561134057604051806020016040528060008152509150506114d0565b600060036002836113519190612f81565b61135b9190612fd7565b60046113679190613008565b905060006020826113789190612f81565b67ffffffffffffffff8111156113b7577f4e487b7100000000000000000000000000000000000000000000000000000000600052604160045260246000fd5b6040519080825280601f01601f1916602001820160405280156113e95781602001600182028036833780820191505090505b5090506000604051806060016040528060408152602001613322604091399050600181016020830160005b8681101561148d5760038101905062ffffff818a015116603f8160121c168401518060081b905060ff603f83600c1c1686015116810190508060081b905060ff603f8360061c1686015116810190508060081b905060ff603f831686015116810190508060e01b90508084526004840193505050611414565b5060038606600181146114a757600281146114b7576114c2565b613d3d60f01b60028303526114c2565b603d60f81b60018303525b508484525050819450505050505b919050565b6114ef8282604051806020016040528060008152506118d1565b5050565b6114fc82610eb0565b61153b576040517f08c379a000000000000000000000000000000000000000000000000000000000815260040161153290612d92565b60405180910390fd5b80600660008481526020019081526020016000209080519060200190611562929190611e51565b505050565b61160183838360405160240161157f93929190612c54565b6040516020818303038152906040527fe3849f79000000000000000000000000000000000000000000000000000000007bffffffffffffffffffffffffffffffffffffffffffffffffffffffff19166020820180517bffffffffffffffffffffffffffffffffffffffffffffffffffffffff83818316178352505050506118a3565b505050565b6001816000016000828254019250508190555050565b8173ffffffffffffffffffffffffffffffffffffffff168373ffffffffffffffffffffffffffffffffffffffff16141561168b576040517f08c379a000000000000000000000000000000000000000000000000000000000815260040161168290612cf2565b60405180910390fd5b80600560008573ffffffffffffffffffffffffffffffffffffffff1673ffffffffffffffffffffffffffffffffffffffff16815260200190815260200160002060008473ffffffffffffffffffffffffffffffffffffffff1673ffffffffffffffffffffffffffffffffffffffff16815260200190815260200160002060006101000a81548160ff0219169083151502179055508173ffffffffffffffffffffffffffffffffffffffff168373ffffffffffffffffffffffffffffffffffffffff167f17307eab39ab6107e8899845ad3d59bd9653f200f220920489ca2b5937696c318360405161177c9190612c17565b60405180910390a3505050565b6117948484846110bb565b6117a08484848461192c565b6117df576040517f08c379a00000000000000000000000000000000000000000000000000000000081526004016117d690612c92565b60405180910390fd5b50505050565b606060405180602001604052806000815250905090565b606061180782610eb0565b611846576040517f08c379a000000000000000000000000000000000000000000000000000000000815260040161183d90612e32565b60405180910390fd5b60006118506117e5565b90506000815111611870576040518060200160405280600081525061189b565b8061187a84611ac3565b60405160200161188b929190612ada565b6040516020818303038152906040525b915050919050565b60008151905060006a636f6e736f6c652e6c6f679050602083016000808483855afa5050505050565b505050565b6118db8383611c70565b6118e8600084848461192c565b611927576040517f08c379a000000000000000000000000000000000000000000000000000000000815260040161191e90612c92565b60405180910390fd5b505050565b600061194d8473ffffffffffffffffffffffffffffffffffffffff16611e3e565b15611ab6578373ffffffffffffffffffffffffffffffffffffffff1663150b7a02611976610f1c565b8786866040518563ffffffff1660e01b81526004016119989493929190612ba2565b602060405180830381600087803b1580156119b257600080fd5b505af19250505080156119e357506040513d601f19601f820116820180604052508101906119e091906121fd565b60015b611a66573d8060008114611a13576040519150601f19603f3d011682016040523d82523d6000602084013e611a18565b606091505b50600081511415611a5e576040517f08c379a0000000000000000000000000000000000000000000000000000000008152600401611a5590612c92565b60405180910390fd5b805181602001fd5b63150b7a0260e01b7bffffffffffffffffffffffffffffffffffffffffffffffffffffffff1916817bffffffffffffffffffffffffffffffffffffffffffffffffffffffff191614915050611abb565b600190505b949350505050565b60606000821415611b0b576040518060400160405280600181526020017f30000000000000000000000000000000000000000000000000000000000000008152509050611c6b565b600082905060005b60008214611b3d578080611b269061317e565b915050600a82611b369190612fd7565b9150611b13565b60008167ffffffffffffffff811115611b7f577f4e487b7100000000000000000000000000000000000000000000000000000000600052604160045260246000fd5b6040519080825280601f01601f191660200182016040528015611bb15781602001600182028036833780820191505090505b5090505b60008514611c6457600182611bca9190613062565b9150600a85611bd991906131c7565b6030611be59190612f81565b60f81b818381518110611c21577f4e487b7100000000000000000000000000000000000000000000000000000000600052603260045260246000fd5b60200101907effffffffffffffffffffffffffffffffffffffffffffffffffffffffffffff1916908160001a905350600a85611c5d9190612fd7565b9450611bb5565b8093505050505b919050565b600073ffffffffffffffffffffffffffffffffffffffff168273ffffffffffffffffffffffffffffffffffffffff161415611ce0576040517f08c379a0000000000000000000000000000000000000000000000000000000008152600401611cd790612db2565b60405180910390fd5b611ce981610eb0565b15611d29576040517f08c379a0000000000000000000000000000000000000000000000000000000008152600401611d2090612cb2565b60405180910390fd5b611d35600083836118cc565b6001600360008473ffffffffffffffffffffffffffffffffffffffff1673ffffffffffffffffffffffffffffffffffffffff1681526020019081526020016000206000828254611d859190612f81565b92505081905550816002600083815260200190815260200160002060006101000a81548173ffffffffffffffffffffffffffffffffffffffff021916908373ffffffffffffffffffffffffffffffffffffffff160217905550808273ffffffffffffffffffffffffffffffffffffffff16600073ffffffffffffffffffffffffffffffffffffffff167fddf252ad1be2c89b69c2b068fc378daa952ba7f163c4a11628f55a4df523b3ef60405160405180910390a45050565b600080823b905060008111915050919050565b828054611e5d9061314c565b90600052602060002090601f016020900481019282611e7f5760008555611ec6565b82601f10611e9857805160ff1916838001178555611ec6565b82800160010185558215611ec6579182015b82811115611ec5578251825591602001919060010190611eaa565b5b509050611ed39190611ed7565b5090565b5b80821115611ef0576000816000905550600101611ed8565b5090565b6000611f07611f0284612ede565b612ead565b905082815260208101848484011115611f1f57600080fd5b611f2a84828561310a565b509392505050565b6000611f45611f4084612f0e565b612ead565b905082815260208101848484011115611f5d57600080fd5b611f6884828561310a565b509392505050565b600081359050611f7f816132c5565b92915050565b600081359050611f94816132dc565b92915050565b600081359050611fa9816132f3565b92915050565b600081519050611fbe816132f3565b92915050565b600082601f830112611fd557600080fd5b8135611fe5848260208601611ef4565b91505092915050565b600082601f830112611fff57600080fd5b813561200f848260208601611f32565b91505092915050565b6000813590506120278161330a565b92915050565b60006020828403121561203f57600080fd5b600061204d84828501611f70565b91505092915050565b6000806040838503121561206957600080fd5b600061207785828601611f70565b925050602061208885828601611f70565b9150509250929050565b6000806000606084860312156120a757600080fd5b60006120b586828701611f70565b93505060206120c686828701611f70565b92505060406120d786828701612018565b9150509250925092565b600080600080608085870312156120f757600080fd5b600061210587828801611f70565b945050602061211687828801611f70565b935050604061212787828801612018565b925050606085013567ffffffffffffffff81111561214457600080fd5b61215087828801611fc4565b91505092959194509250565b6000806040838503121561216f57600080fd5b600061217d85828601611f70565b925050602061218e85828601611f85565b9150509250929050565b600080604083850312156121ab57600080fd5b60006121b985828601611f70565b92505060206121ca85828601612018565b9150509250929050565b6000602082840312156121e657600080fd5b60006121f484828501611f9a565b91505092915050565b60006020828403121561220f57600080fd5b600061221d84828501611faf565b91505092915050565b60006020828403121561223857600080fd5b600082013567ffffffffffffffff81111561225257600080fd5b61225e84828501611fee565b91505092915050565b60006020828403121561227957600080fd5b600061228784828501612018565b91505092915050565b61229981613096565b82525050565b6122a8816130a8565b82525050565b60006122b982612f3e565b6122c38185612f54565b93506122d3818560208601613119565b6122dc816132b4565b840191505092915050565b60006122f282612f49565b6122fc8185612f65565b935061230c818560208601613119565b612315816132b4565b840191505092915050565b600061232b82612f49565b6123358185612f76565b9350612345818560208601613119565b80840191505092915050565b600061235e602583612f76565b91507f68747470733a2f2f6e6674707265766965772e30786465762e636f6465732f3f60008301527f636f64653d0000000000000000000000000000000000000000000000000000006020830152602582019050919050565b60006123c4603283612f65565b91507f4552433732313a207472616e7366657220746f206e6f6e20455243373231526560008301527f63656976657220696d706c656d656e74657200000000000000000000000000006020830152604082019050919050565b600061242a601c83612f65565b91507f4552433732313a20746f6b656e20616c7265616479206d696e746564000000006000830152602082019050919050565b600061246a602483612f65565b91507f4552433732313a207472616e7366657220746f20746865207a65726f2061646460008301527f72657373000000000000000000000000000000000000000000000000000000006020830152604082019050919050565b60006124d0601983612f65565b91507f4552433732313a20617070726f766520746f2063616c6c6572000000000000006000830152602082019050919050565b6000612510602c83612f65565b91507f4552433732313a206f70657261746f7220717565727920666f72206e6f6e657860008301527f697374656e7420746f6b656e00000000000000000000000000000000000000006020830152604082019050919050565b6000612576603883612f65565b91507f4552433732313a20617070726f76652063616c6c6572206973206e6f74206f7760008301527f6e6572206e6f7220617070726f76656420666f7220616c6c00000000000000006020830152604082019050919050565b60006125dc602a83612f65565b91507f4552433732313a2062616c616e636520717565727920666f7220746865207a6560008301527f726f2061646472657373000000000000000000000000000000000000000000006020830152604082019050919050565b6000612642602983612f65565b91507f4552433732313a206f776e657220717565727920666f72206e6f6e657869737460008301527f656e7420746f6b656e00000000000000000000000000000000000000000000006020830152604082019050919050565b60006126a8602e83612f65565b91507f45524337323155524953746f726167653a2055524920736574206f66206e6f6e60008301527f6578697374656e7420746f6b656e0000000000000000000000000000000000006020830152604082019050919050565b600061270e600283612f76565b91507f227d0000000000000000000000000000000000000000000000000000000000006000830152600282019050919050565b600061274e602083612f65565b91507f4552433732313a206d696e7420746f20746865207a65726f20616464726573736000830152602082019050919050565b600061278e603183612f65565b91507f45524337323155524953746f726167653a2055524920717565727920666f722060008301527f6e6f6e6578697374656e7420746f6b656e0000000000000000000000000000006020830152604082019050919050565b60006127f4602c83612f65565b91507f4552433732313a20617070726f76656420717565727920666f72206e6f6e657860008301527f697374656e7420746f6b656e00000000000000000000000000000000000000006020830152604082019050919050565b600061285a603c83612f76565b91507f222c20226465736372697074696f6e223a20224e46542063726561746564207760008301527f69746820444f4f444c45204e46542e222c2022696d616765223a2022000000006020830152603c82019050919050565b60006128c0602983612f65565b91507f4552433732313a207472616e73666572206f6620746f6b656e2074686174206960008301527f73206e6f74206f776e00000000000000000000000000000000000000000000006020830152604082019050919050565b6000612926602f83612f65565b91507f4552433732314d657461646174613a2055524920717565727920666f72206e6f60008301527f6e6578697374656e7420746f6b656e00000000000000000000000000000000006020830152604082019050919050565b600061298c600a83612f76565b91507f7b226e616d65223a2022000000000000000000000000000000000000000000006000830152600a82019050919050565b60006129cc602183612f65565b91507f4552433732313a20617070726f76616c20746f2063757272656e74206f776e6560008301527f72000000000000000000000000000000000000000000000000000000000000006020830152604082019050919050565b6000612a32601d83612f76565b91507f646174613a6170706c69636174696f6e2f6a736f6e3b6261736536342c0000006000830152601d82019050919050565b6000612a72603183612f65565b91507f4552433732313a207472616e736665722063616c6c6572206973206e6f74206f60008301527f776e6572206e6f7220617070726f7665640000000000000000000000000000006020830152604082019050919050565b612ad481613100565b82525050565b6000612ae68285612320565b9150612af28284612320565b91508190509392505050565b6000612b0982612351565b9150612b158284612320565b915081905092915050565b6000612b2b8261297f565b9150612b378285612320565b9150612b428261284d565b9150612b4e8284612320565b9150612b5982612701565b91508190509392505050565b6000612b7082612a25565b9150612b7c8284612320565b915081905092915050565b6000602082019050612b9c6000830184612290565b92915050565b6000608082019050612bb76000830187612290565b612bc46020830186612290565b612bd16040830185612acb565b8181036060830152612be381846122ae565b905095945050505050565b6000604082019050612c036000830185612290565b612c106020830184612acb565b9392505050565b6000602082019050612c2c600083018461229f565b92915050565b60006020820190508181036000830152612c4c81846122e7565b905092915050565b60006060820190508181036000830152612c6e81866122e7565b9050612c7d6020830185612acb565b612c8a6040830184612290565b949350505050565b60006020820190508181036000830152612cab816123b7565b9050919050565b60006020820190508181036000830152612ccb8161241d565b9050919050565b60006020820190508181036000830152612ceb8161245d565b9050919050565b60006020820190508181036000830152612d0b816124c3565b9050919050565b60006020820190508181036000830152612d2b81612503565b9050919050565b60006020820190508181036000830152612d4b81612569565b9050919050565b60006020820190508181036000830152612d6b816125cf565b9050919050565b60006020820190508181036000830152612d8b81612635565b9050919050565b60006020820190508181036000830152612dab8161269b565b9050919050565b60006020820190508181036000830152612dcb81612741565b9050919050565b60006020820190508181036000830152612deb81612781565b9050919050565b60006020820190508181036000830152612e0b816127e7565b9050919050565b60006020820190508181036000830152612e2b816128b3565b9050919050565b60006020820190508181036000830152612e4b81612919565b9050919050565b60006020820190508181036000830152612e6b816129bf565b9050919050565b60006020820190508181036000830152612e8b81612a65565b9050919050565b6000602082019050612ea76000830184612acb565b92915050565b6000604051905081810181811067ffffffffffffffff82111715612ed457612ed3613285565b5b8060405250919050565b600067ffffffffffffffff821115612ef957612ef8613285565b5b601f19601f8301169050602081019050919050565b600067ffffffffffffffff821115612f2957612f28613285565b5b601f19601f8301169050602081019050919050565b600081519050919050565b600081519050919050565b600082825260208201905092915050565b600082825260208201905092915050565b600081905092915050565b6000612f8c82613100565b9150612f9783613100565b9250827fffffffffffffffffffffffffffffffffffffffffffffffffffffffffffffffff03821115612fcc57612fcb6131f8565b5b828201905092915050565b6000612fe282613100565b9150612fed83613100565b925082612ffd57612ffc613227565b5b828204905092915050565b600061301382613100565b915061301e83613100565b9250817fffffffffffffffffffffffffffffffffffffffffffffffffffffffffffffffff0483118215151615613057576130566131f8565b5b828202905092915050565b600061306d82613100565b915061307883613100565b92508282101561308b5761308a6131f8565b5b828203905092915050565b60006130a1826130e0565b9050919050565b60008115159050919050565b60007fffffffff0000000000000000000000000000000000000000000000000000000082169050919050565b600073ffffffffffffffffffffffffffffffffffffffff82169050919050565b6000819050919050565b82818337600083830152505050565b60005b8381101561313757808201518184015260208101905061311c565b83811115613146576000848401525b50505050565b6000600282049050600182168061316457607f821691505b6020821081141561317857613177613256565b5b50919050565b600061318982613100565b91507fffffffffffffffffffffffffffffffffffffffffffffffffffffffffffffffff8214156131bc576131bb6131f8565b5b600182019050919050565b60006131d282613100565b91506131dd83613100565b9250826131ed576131ec613227565b5b828206905092915050565b7f4e487b7100000000000000000000000000000000000000000000000000000000600052601160045260246000fd5b7f4e487b7100000000000000000000000000000000000000000000000000000000600052601260045260246000fd5b7f4e487b7100000000000000000000000000000000000000000000000000000000600052602260045260246000fd5b7f4e487b7100000000000000000000000000000000000000000000000000000000600052604160045260246000fd5b6000601f19601f8301169050919050565b6132ce81613096565b81146132d957600080fd5b50565b6132e5816130a8565b81146132f057600080fd5b50565b6132fc816130b4565b811461330757600080fd5b50565b61331381613100565b811461331e57600080fd5b5056fe4142434445464748494a4b4c4d4e4f505152535455565758595a6162636465666768696a6b6c6d6e6f707172737475767778797a303132333435363738392b2fa26469706673582212200b9ec3b59b9b9213a91455d77c2af00a4ae075c300f18f52f238427ce449b4f664736f6c63430008000033",
  "linkReferences": {},
  "deployedLinkReferences": {}
}