{
  "_format": "hh-sol-artifact-1",
  "contractName": "MyEpicNFT",
  "sourceName": "contracts/MyEpicNFT.sol",
  "abi": [
    {
      "inputs": [],
      "stateMutability": "nonpayable",
      "type": "constructor"
    },
    {
      "anonymous": false,
      "inputs": [
        {
          "indexed": true,
          "internalType": "address",
          "name": "owner",
          "type": "address"
        },
        {
          "indexed": true,
          "internalType": "address",
          "name": "approved",
          "type": "address"
        },
        {
          "indexed": true,
          "internalType": "uint256",
          "name": "tokenId",
          "type": "uint256"
        }
      ],
      "name": "Approval",
      "type": "event"
    },
    {
      "anonymous": false,
      "inputs": [
        {
          "indexed": true,
          "internalType": "address",
          "name": "owner",
          "type": "address"
        },
        {
          "indexed": true,
          "internalType": "address",
          "name": "operator",
          "type": "address"
        },
        {
          "indexed": false,
          "internalType": "bool",
          "name": "approved",
          "type": "bool"
        }
      ],
      "name": "ApprovalForAll",
      "type": "event"
    },
    {
      "anonymous": false,
      "inputs": [
        {
          "indexed": false,
          "internalType": "address",
          "name": "sender",
          "type": "address"
        },
        {
          "indexed": false,
          "internalType": "uint256",
          "name": "tokenId",
          "type": "uint256"
        }
      ],
      "name": "NewEpicNFTMinted",
      "type": "event"
    },
    {
      "anonymous": false,
      "inputs": [
        {
          "indexed": true,
          "internalType": "address",
          "name": "from",
          "type": "address"
        },
        {
          "indexed": true,
          "internalType": "address",
          "name": "to",
          "type": "address"
        },
        {
          "indexed": true,
          "internalType": "uint256",
          "name": "tokenId",
          "type": "uint256"
        }
      ],
      "name": "Transfer",
      "type": "event"
    },
    {
      "inputs": [
        {
          "internalType": "address",
          "name": "to",
          "type": "address"
        },
        {
          "internalType": "uint256",
          "name": "tokenId",
          "type": "uint256"
        }
      ],
      "name": "approve",
      "outputs": [],
      "stateMutability": "nonpayable",
      "type": "function"
    },
    {
      "inputs": [
        {
          "internalType": "address",
          "name": "owner",
          "type": "address"
        }
      ],
      "name": "balanceOf",
      "outputs": [
        {
          "internalType": "uint256",
          "name": "",
          "type": "uint256"
        }
      ],
      "stateMutability": "view",
      "type": "function"
    },
    {
      "inputs": [
        {
          "internalType": "uint256",
          "name": "tokenId",
          "type": "uint256"
        }
      ],
      "name": "getApproved",
      "outputs": [
        {
          "internalType": "address",
          "name": "",
          "type": "address"
        }
      ],
      "stateMutability": "view",
      "type": "function"
    },
    {
      "inputs": [],
      "name": "getTotalNFTsMintedSoFar",
      "outputs": [
        {
          "internalType": "uint256",
          "name": "",
          "type": "uint256"
        }
      ],
      "stateMutability": "view",
      "type": "function"
    },
    {
      "inputs": [
        {
          "internalType": "address",
          "name": "owner",
          "type": "address"
        },
        {
          "internalType": "address",
          "name": "operator",
          "type": "address"
        }
      ],
      "name": "isApprovedForAll",
      "outputs": [
        {
          "internalType": "bool",
          "name": "",
          "type": "bool"
        }
      ],
      "stateMutability": "view",
      "type": "function"
    },
    {
      "inputs": [],
      "name": "makeAnEpicNFT",
      "outputs": [],
      "stateMutability": "nonpayable",
      "type": "function"
    },
    {
      "inputs": [],
      "name": "name",
      "outputs": [
        {
          "internalType": "string",
          "name": "",
          "type": "string"
        }
      ],
      "stateMutability": "view",
      "type": "function"
    },
    {
      "inputs": [
        {
          "internalType": "uint256",
          "name": "tokenId",
          "type": "uint256"
        }
      ],
      "name": "ownerOf",
      "outputs": [
        {
          "internalType": "address",
          "name": "",
          "type": "address"
        }
      ],
      "stateMutability": "view",
      "type": "function"
    },
    {
      "inputs": [
        {
          "internalType": "uint256",
          "name": "tokenId",
          "type": "uint256"
        }
      ],
      "name": "pickRandomFirstWord",
      "outputs": [
        {
          "internalType": "string",
          "name": "",
          "type": "string"
        }
      ],
      "stateMutability": "view",
      "type": "function"
    },
    {
      "inputs": [
        {
          "internalType": "uint256",
          "name": "tokenId",
          "type": "uint256"
        }
      ],
      "name": "pickRandomSecondWord",
      "outputs": [
        {
          "internalType": "string",
          "name": "",
          "type": "string"
        }
      ],
      "stateMutability": "view",
      "type": "function"
    },
    {
      "inputs": [
        {
          "internalType": "uint256",
          "name": "tokenId",
          "type": "uint256"
        }
      ],
      "name": "pickRandomThirdWord",
      "outputs": [
        {
          "internalType": "string",
          "name": "",
          "type": "string"
        }
      ],
      "stateMutability": "view",
      "type": "function"
    },
    {
      "inputs": [
        {
          "internalType": "address",
          "name": "from",
          "type": "address"
        },
        {
          "internalType": "address",
          "name": "to",
          "type": "address"
        },
        {
          "internalType": "uint256",
          "name": "tokenId",
          "type": "uint256"
        }
      ],
      "name": "safeTransferFrom",
      "outputs": [],
      "stateMutability": "nonpayable",
      "type": "function"
    },
    {
      "inputs": [
        {
          "internalType": "address",
          "name": "from",
          "type": "address"
        },
        {
          "internalType": "address",
          "name": "to",
          "type": "address"
        },
        {
          "internalType": "uint256",
          "name": "tokenId",
          "type": "uint256"
        },
        {
          "internalType": "bytes",
          "name": "_data",
          "type": "bytes"
        }
      ],
      "name": "safeTransferFrom",
      "outputs": [],
      "stateMutability": "nonpayable",
      "type": "function"
    },
    {
      "inputs": [
        {
          "internalType": "address",
          "name": "operator",
          "type": "address"
        },
        {
          "internalType": "bool",
          "name": "approved",
          "type": "bool"
        }
      ],
      "name": "setApprovalForAll",
      "outputs": [],
      "stateMutability": "nonpayable",
      "type": "function"
    },
    {
      "inputs": [
        {
          "internalType": "bytes4",
          "name": "interfaceId",
          "type": "bytes4"
        }
      ],
      "name": "supportsInterface",
      "outputs": [
        {
          "internalType": "bool",
          "name": "",
          "type": "bool"
        }
      ],
      "stateMutability": "view",
      "type": "function"
    },
    {
      "inputs": [],
      "name": "symbol",
      "outputs": [
        {
          "internalType": "string",
          "name": "",
          "type": "string"
        }
      ],
      "stateMutability": "view",
      "type": "function"
    },
    {
      "inputs": [
        {
          "internalType": "uint256",
          "name": "tokenId",
          "type": "uint256"
        }
      ],
      "name": "tokenURI",
      "outputs": [
        {
          "internalType": "string",
          "name": "",
          "type": "string"
        }
      ],
      "stateMutability": "view",
      "type": "function"
    },
    {
      "inputs": [
        {
          "internalType": "address",
          "name": "from",
          "type": "address"
        },
        {
          "internalType": "address",
          "name": "to",
          "type": "address"
        },
        {
          "internalType": "uint256",
          "name": "tokenId",
          "type": "uint256"
        }
      ],
      "name": "transferFrom",
      "outputs": [],
      "stateMutability": "nonpayable",
      "type": "function"
    }
  ],
  "bytecode": "0x60806040526040518061018001604052806101488152602001620055ec61014891396009908051906020019062000038929190620018d1565b50604051806101a001604052806040518060400160405280600381526020017f426967000000000000000000000000000000000000000000000000000000000081525081526020016040518060400160405280600581526020017f4372617a7900000000000000000000000000000000000000000000000000000081525081526020016040518060400160405280600481526020017f536c6f770000000000000000000000000000000000000000000000000000000081525081526020016040518060400160405280600781526020017f53757072656d650000000000000000000000000000000000000000000000000081525081526020016040518060400160405280600781526020017f526574697265640000000000000000000000000000000000000000000000000081525081526020016040518060400160405280600381526020017f416365000000000000000000000000000000000000000000000000000000000081525081526020016040518060400160405280600381526020017f426967000000000000000000000000000000000000000000000000000000000081525081526020016040518060400160405280600481526020017f486967680000000000000000000000000000000000000000000000000000000081525081526020016040518060400160405280600581526020017f4769616e7400000000000000000000000000000000000000000000000000000081525081526020016040518060400160405280600681526020017f4c6974746c65000000000000000000000000000000000000000000000000000081525081526020016040518060400160405280600381526020017f4f6c64000000000000000000000000000000000000000000000000000000000081525081526020016040518060400160405280600581526020017f537570657200000000000000000000000000000000000000000000000000000081525081526020016040518060400160405280600781526020017f53757072656d6500000000000000000000000000000000000000000000000000815250815250600a90600d6200035492919062001962565b50604051806109a001604052806040518060400160405280600981526020017f41646a756361746f72000000000000000000000000000000000000000000000081525081526020016040518060400160405280600481526020017f4166726f0000000000000000000000000000000000000000000000000000000081525081526020016040518060400160405280600581526020017f416c69656e00000000000000000000000000000000000000000000000000000081525081526020016040518060400160405280600781526020017f416e74656e6e610000000000000000000000000000000000000000000000000081525081526020016040518060400160405280600481526020017f417175610000000000000000000000000000000000000000000000000000000081525081526020016040518060400160405280600481526020017f42616c640000000000000000000000000000000000000000000000000000000081525081526020016040518060400160405280600681526020017f426172626572000000000000000000000000000000000000000000000000000081525081526020016040518060400160405280600581526020017f426561726400000000000000000000000000000000000000000000000000000081525081526020016040518060400160405280600381526020017f466174000000000000000000000000000000000000000000000000000000000081525081526020016040518060400160405280600a81526020017f4d656368616e6963616c0000000000000000000000000000000000000000000081525081526020016040518060400160405280600481526020017f576173700000000000000000000000000000000000000000000000000000000081525081526020016040518060400160405280600481526020017f4576696c0000000000000000000000000000000000000000000000000000000081525081526020016040518060400160405280600881526020017f436172656c65737300000000000000000000000000000000000000000000000081525081526020016040518060400160405280600381526020017f436174000000000000000000000000000000000000000000000000000000000081525081526020016040518060400160405280600981526020017f436f6d6d616e646572000000000000000000000000000000000000000000000081525081526020016040518060400160405280600d81526020017f436f6d706c6574696f6e6973740000000000000000000000000000000000000081525081526020016040518060400160405280600481526020017f436f6f6c0000000000000000000000000000000000000000000000000000000081525081526020016040518060400160405280600381526020017f436f70000000000000000000000000000000000000000000000000000000000081525081526020016040518060400160405280600a81526020017f43726f6e656e626572670000000000000000000000000000000000000000000081525081526020016040518060400160405280600c81526020017f4375726c792d686169726564000000000000000000000000000000000000000081525081526020016040518060400160405280600781526020017f4379636c6f70730000000000000000000000000000000000000000000000000081525081526020016040518060400160405280600581526020017f44616e647900000000000000000000000000000000000000000000000000000081525081526020016040518060400160405280600681526020017f446f6f667573000000000000000000000000000000000000000000000000000081525081526020016040518060400160405280600681526020017f447265616d79000000000000000000000000000000000000000000000000000081525081526020016040518060400160405280600481526020017f44756d620000000000000000000000000000000000000000000000000000000081525081526020016040518060400160405280600781526020017f45617272696e670000000000000000000000000000000000000000000000000081525081526020016040518060400160405280600881526020017f457965506174636800000000000000000000000000000000000000000000000081525081526020016040518060400160405280600581526020017f46616e637900000000000000000000000000000000000000000000000000000081525081526020016040518060400160405280600681526020017f4661726d6572000000000000000000000000000000000000000000000000000081525081526020016040518060400160405280600781526020017f466173636973740000000000000000000000000000000000000000000000000081525081526020016040518060400160405280600681526020017f5069636b6c65000000000000000000000000000000000000000000000000000081525081526020016040518060400160405280600781526020017f4772616e6470610000000000000000000000000000000000000000000000000081525081526020016040518060400160405280600881526020017f477261746566756c00000000000000000000000000000000000000000000000081525081526020016040518060400160405280600581526020017f477561726400000000000000000000000000000000000000000000000000000081525081526020016040518060400160405280600681526020017f4775696c7479000000000000000000000000000000000000000000000000000081525081526020016040518060400160405280600581526020017f486170707900000000000000000000000000000000000000000000000000000081525081526020016040518060400160405280600881526020017f486f6c6f6772616d00000000000000000000000000000000000000000000000081525081526020016040518060400160405280600881526020017f486177616969616e00000000000000000000000000000000000000000000000081525081526020016040518060400160405280600881526020017f4865616462616e6400000000000000000000000000000000000000000000000081525081526020016040518060400160405280600781526020017f486f706566756c0000000000000000000000000000000000000000000000000081525081526020016040518060400160405280600781526020017f486f74686561640000000000000000000000000000000000000000000000000081525081526020016040518060400160405280600981526020017f496e737572616e6365000000000000000000000000000000000000000000000081525081526020016040518060400160405280600c81526020017f496e76657374696761746f72000000000000000000000000000000000000000081525081526020016040518060400160405280600481526020017f4a6f686e0000000000000000000000000000000000000000000000000000000081525081526020016040518060400160405280600681526020017f4a6f73756b65000000000000000000000000000000000000000000000000000081525081526020016040518060400160405280600881526020017f4a7567676c696e6700000000000000000000000000000000000000000000000081525081526020016040518060400160405280600881526020017f4a756e6b5961726400000000000000000000000000000000000000000000000081525081526020016040518060400160405280600681526020017f4c697a617264000000000000000000000000000000000000000000000000000081525081526020016040518060400160405280600881526020017f4d6178696d756d7300000000000000000000000000000000000000000000000081525081526020016040518060400160405280600681526020017f4d656d6f7279000000000000000000000000000000000000000000000000000081525081526020016040518060400160405280600581526020017f4d69616d6900000000000000000000000000000000000000000000000000000081525081526020016040518060400160405280600a81526020017f4d7973746572696f75730000000000000000000000000000000000000000000081525081526020016040518060400160405280600481526020017f4e6567610000000000000000000000000000000000000000000000000000000081525081526020016040518060400160405280600881526020017f4e6f76656c69737400000000000000000000000000000000000000000000000081525081526020016040518060400160405280600381526020017f476f64000000000000000000000000000000000000000000000000000000000081525081526020016040518060400160405280600781526020017f506c756d6265720000000000000000000000000000000000000000000000000081525081526020016040518060400160405280600781526020017f5175616e74756d0000000000000000000000000000000000000000000000000081525081526020016040518060400160405280600581526020017f526164617200000000000000000000000000000000000000000000000000000081525081526020016040518060400160405280600a81526020017f526576656e676566756c0000000000000000000000000000000000000000000081525081526020016040518060400160405280600581526020017f526f626f7400000000000000000000000000000000000000000000000000000081525081526020016040518060400160405280600881526020017f53616c65736d616e00000000000000000000000000000000000000000000000081525081526020016040518060400160405280600a81526020017f506f6c6963697469616e0000000000000000000000000000000000000000000081525081526020016040518060400160405280600781526020017f536869627579610000000000000000000000000000000000000000000000000081525081526020016040518060400160405280600681526020017f536872696d70000000000000000000000000000000000000000000000000000081525081526020016040518060400160405280600681526020017f53696d706c65000000000000000000000000000000000000000000000000000081525081526020016040518060400160405280600481526020017f4a616d7a0000000000000000000000000000000000000000000000000000000081525081526020016040518060400160405280600981526020017f536f6c696369746f72000000000000000000000000000000000000000000000081525081526020016040518060400160405280600381526020017f46616e000000000000000000000000000000000000000000000000000000000081525081526020016040518060400160405280600881526020017f5375727669766f7200000000000000000000000000000000000000000000000081525081526020016040518060400160405280600581526020017f576569726400000000000000000000000000000000000000000000000000000081525081526020016040518060400160405280600581526020017f546564647900000000000000000000000000000000000000000000000000000081525081526020016040518060400160405280600481526020017f54696e790000000000000000000000000000000000000000000000000000000081525081526020016040518060400160405280600581526020017f546f78696300000000000000000000000000000000000000000000000000000081525081526020016040518060400160405280600581526020017f5669736f7200000000000000000000000000000000000000000000000000000081525081526020016040518060400160405280600781526020017f5765737465726e0000000000000000000000000000000000000000000000000081525081526020016040518060400160405280600581526020017f596f2d596f00000000000000000000000000000000000000000000000000000081525081526020016040518060400160405280600481526020017f5a65726f00000000000000000000000000000000000000000000000000000000815250815250600b90604d62001530929190620019c9565b506040518060e001604052806040518060400160405280600481526020017f5269636b0000000000000000000000000000000000000000000000000000000081525081526020016040518060400160405280600581526020017f4d6f72747900000000000000000000000000000000000000000000000000000081525081526020016040518060400160405280600581526020017f4a6572727900000000000000000000000000000000000000000000000000000081525081526020016040518060400160405280600481526020017f426574680000000000000000000000000000000000000000000000000000000081525081526020016040518060400160405280600781526020017f53756d6d6572730000000000000000000000000000000000000000000000000081525081526020016040518060400160405280601081526020017f4d722e506f6f707962757474686f6c650000000000000000000000000000000081525081526020016040518060400160405280600a81526020017f42697264706572736f6e00000000000000000000000000000000000000000000815250815250600c906007620016e992919062001a30565b50348015620016f757600080fd5b506040518060400160405280601081526020017f5269636b2026204d6f727479204e4654000000000000000000000000000000008152506040518060400160405280600981526020017f5249434b4d4f525459000000000000000000000000000000000000000000000081525081600090805190602001906200177c929190620018d1565b50806001908051906020019062001795929190620018d1565b505050620017e36040518060400160405280600881526020017f4e465420465457210000000000000000000000000000000000000000000000008152506200180560201b620011621760201c565b6032600860006101000a81548160ff021916908360ff16021790555062001c51565b620018a5816040516024016200181c919062001b65565b6040516020818303038152906040527f41304fac000000000000000000000000000000000000000000000000000000007bffffffffffffffffffffffffffffffffffffffffffffffffffffffff19166020820180517bffffffffffffffffffffffffffffffffffffffffffffffffffffffff8381831617835250505050620018a860201b60201c565b50565b60008151905060006a636f6e736f6c652e6c6f679050602083016000808483855afa5050505050565b828054620018df9062001bdb565b90600052602060002090601f0160209004810192826200190357600085556200194f565b82601f106200191e57805160ff19168380011785556200194f565b828001600101855582156200194f579182015b828111156200194e57825182559160200191906001019062001931565b5b5090506200195e919062001a97565b5090565b828054828255906000526020600020908101928215620019b6579160200282015b82811115620019b5578251829080519060200190620019a4929190620018d1565b509160200191906001019062001983565b5b509050620019c5919062001ab6565b5090565b82805482825590600052602060002090810192821562001a1d579160200282015b8281111562001a1c57825182908051906020019062001a0b929190620018d1565b5091602001919060010190620019ea565b5b50905062001a2c919062001ab6565b5090565b82805482825590600052602060002090810192821562001a84579160200282015b8281111562001a8357825182908051906020019062001a72929190620018d1565b509160200191906001019062001a51565b5b50905062001a93919062001ab6565b5090565b5b8082111562001ab257600081600090555060010162001a98565b5090565b5b8082111562001ada576000818162001ad0919062001ade565b5060010162001ab7565b5090565b50805462001aec9062001bdb565b6000825580601f1062001b00575062001b21565b601f01602090049060005260206000209081019062001b20919062001a97565b5b50565b600062001b318262001b89565b62001b3d818562001b94565b935062001b4f81856020860162001ba5565b62001b5a8162001c40565b840191505092915050565b6000602082019050818103600083015262001b81818462001b24565b905092915050565b600081519050919050565b600082825260208201905092915050565b60005b8381101562001bc557808201518184015260208101905062001ba8565b8381111562001bd5576000848401525b50505050565b6000600282049050600182168062001bf457607f821691505b6020821081141562001c0b5762001c0a62001c11565b5b50919050565b7f4e487b7100000000000000000000000000000000000000000000000000000000600052602260045260246000fd5b6000601f19601f8301169050919050565b61398b8062001c616000396000f3fe608060405234801561001057600080fd5b50600436106101165760003560e01c806370a08231116100a2578063b88d4fde11610071578063b88d4fde14610305578063c575757a14610321578063c87b56dd14610351578063de9d132f14610381578063e985e9c51461038b57610116565b806370a082311461026b57806395d89b411461029b578063a22cb465146102b9578063b187301f146102d557610116565b8063095ea7b3116100e9578063095ea7b3146101b757806323b872dd146101d35780632de38d68146101ef57806342842e0e1461021f5780636352211e1461023b57610116565b806301ffc9a71461011b578063060475901461014b57806306fdde0314610169578063081812fc14610187575b600080fd5b61013560048036038101906101309190612562565b6103bb565b6040516101429190613226565b60405180910390f35b61015361049d565b60405161016091906134a1565b60405180910390f35b6101716104ba565b60405161017e9190613241565b60405180910390f35b6101a1600480360381019061019c91906125b4565b61054c565b6040516101ae9190613196565b60405180910390f35b6101d160048036038101906101cc9190612526565b6105d1565b005b6101ed60048036038101906101e89190612420565b6106e9565b005b610209600480360381019061020491906125b4565b610749565b6040516102169190613241565b60405180910390f35b61023960048036038101906102349190612420565b610867565b005b610255600480360381019061025091906125b4565b610887565b6040516102629190613196565b60405180910390f35b610285600480360381019061028091906123bb565b610939565b60405161029291906134a1565b60405180910390f35b6102a36109f1565b6040516102b09190613241565b60405180910390f35b6102d360048036038101906102ce91906124ea565b610a83565b005b6102ef60048036038101906102ea91906125b4565b610a99565b6040516102fc9190613241565b60405180910390f35b61031f600480360381019061031a919061246f565b610bb7565b005b61033b600480360381019061033691906125b4565b610c19565b6040516103489190613241565b60405180910390f35b61036b600480360381019061036691906125b4565b610d37565b6040516103789190613241565b60405180910390f35b610389610e89565b005b6103a560048036038101906103a091906123e4565b6110ce565b6040516103b29190613226565b60405180910390f35b60007f80ac58cd000000000000000000000000000000000000000000000000000000007bffffffffffffffffffffffffffffffffffffffffffffffffffffffff1916827bffffffffffffffffffffffffffffffffffffffffffffffffffffffff1916148061048657507f5b5e139f000000000000000000000000000000000000000000000000000000007bffffffffffffffffffffffffffffffffffffffffffffffffffffffff1916827bffffffffffffffffffffffffffffffffffffffffffffffffffffffff1916145b806104965750610495826111fb565b5b9050919050565b600060016104ab6007611265565b6104b59190613575565b905090565b6060600080546104c990613740565b80601f01602080910402602001604051908101604052809291908181526020018280546104f590613740565b80156105425780601f1061051757610100808354040283529160200191610542565b820191906000526020600020905b81548152906001019060200180831161052557829003601f168201915b5050505050905090565b600061055782611273565b610596576040517f08c379a000000000000000000000000000000000000000000000000000000000815260040161058d90613401565b60405180910390fd5b6004600083815260200190815260200160002060009054906101000a900473ffffffffffffffffffffffffffffffffffffffff169050919050565b60006105dc82610887565b90508073ffffffffffffffffffffffffffffffffffffffff168373ffffffffffffffffffffffffffffffffffffffff16141561064d576040517f08c379a000000000000000000000000000000000000000000000000000000000815260040161064490613461565b60405180910390fd5b8073ffffffffffffffffffffffffffffffffffffffff1661066c6112df565b73ffffffffffffffffffffffffffffffffffffffff16148061069b575061069a816106956112df565b6110ce565b5b6106da576040517f08c379a00000000000000000000000000000000000000000000000000000000081526004016106d190613341565b60405180910390fd5b6106e483836112e7565b505050565b6106fa6106f46112df565b826113a0565b610739576040517f08c379a000000000000000000000000000000000000000000000000000000000815260040161073090613481565b60405180910390fd5b61074483838361147e565b505050565b6060600061077d610759846116da565b604051602001610769919061310d565b604051602081830303815290604052611887565b9050600a805490508161079091906137bb565b9050600a81815481106107cc577f4e487b7100000000000000000000000000000000000000000000000000000000600052603260045260246000fd5b9060005260206000200180546107e190613740565b80601f016020809104026020016040519081016040528092919081815260200182805461080d90613740565b801561085a5780601f1061082f5761010080835404028352916020019161085a565b820191906000526020600020905b81548152906001019060200180831161083d57829003601f168201915b5050505050915050919050565b61088283838360405180602001604052806000815250610bb7565b505050565b6000806002600084815260200190815260200160002060009054906101000a900473ffffffffffffffffffffffffffffffffffffffff169050600073ffffffffffffffffffffffffffffffffffffffff168173ffffffffffffffffffffffffffffffffffffffff161415610930576040517f08c379a000000000000000000000000000000000000000000000000000000000815260040161092790613381565b60405180910390fd5b80915050919050565b60008073ffffffffffffffffffffffffffffffffffffffff168273ffffffffffffffffffffffffffffffffffffffff1614156109aa576040517f08c379a00000000000000000000000000000000000000000000000000000000081526004016109a190613361565b60405180910390fd5b600360008373ffffffffffffffffffffffffffffffffffffffff1673ffffffffffffffffffffffffffffffffffffffff168152602001908152602001600020549050919050565b606060018054610a0090613740565b80601f0160208091040260200160405190810160405280929190818152602001828054610a2c90613740565b8015610a795780601f10610a4e57610100808354040283529160200191610a79565b820191906000526020600020905b815481529060010190602001808311610a5c57829003601f168201915b5050505050905090565b610a95610a8e6112df565b83836118ba565b5050565b60606000610acd610aa9846116da565b604051602001610ab991906130eb565b604051602081830303815290604052611887565b9050600b8054905081610ae091906137bb565b9050600b8181548110610b1c577f4e487b7100000000000000000000000000000000000000000000000000000000600052603260045260246000fd5b906000526020600020018054610b3190613740565b80601f0160208091040260200160405190810160405280929190818152602001828054610b5d90613740565b8015610baa5780601f10610b7f57610100808354040283529160200191610baa565b820191906000526020600020905b815481529060010190602001808311610b8d57829003601f168201915b5050505050915050919050565b610bc8610bc26112df565b836113a0565b610c07576040517f08c379a0000000000000000000000000000000000000000000000000000000008152600401610bfe90613481565b60405180910390fd5b610c1384848484611a27565b50505050565b60606000610c4d610c29846116da565b604051602001610c3991906130c9565b604051602081830303815290604052611887565b9050600c8054905081610c6091906137bb565b9050600c8181548110610c9c577f4e487b7100000000000000000000000000000000000000000000000000000000600052603260045260246000fd5b906000526020600020018054610cb190613740565b80601f0160208091040260200160405190810160405280929190818152602001828054610cdd90613740565b8015610d2a5780601f10610cff57610100808354040283529160200191610d2a565b820191906000526020600020905b815481529060010190602001808311610d0d57829003601f168201915b5050505050915050919050565b6060610d4282611273565b610d81576040517f08c379a0000000000000000000000000000000000000000000000000000000008152600401610d78906133e1565b60405180910390fd5b6000600660008481526020019081526020016000208054610da190613740565b80601f0160208091040260200160405190810160405280929190818152602001828054610dcd90613740565b8015610e1a5780601f10610def57610100808354040283529160200191610e1a565b820191906000526020600020905b815481529060010190602001808311610dfd57829003601f168201915b505050505090506000610e2b611a83565b9050600081511415610e41578192505050610e84565b600082511115610e76578082604051602001610e5e929190613009565b60405160208183030381529060405292505050610e84565b610e7f84611a9a565b925050505b919050565b6000610e956007611265565b9050600860009054906101000a900460ff1660ff168110610eb557600080fd5b6000610ec082610749565b90506000610ecd83610a99565b90506000610eda84610c19565b90506000838383604051602001610ef39392919061302d565b604051602081830303815290604052905060006009858585604051602001610f1e949392919061305e565b60405160208183030381529060405290506000610f6383610f3e84611b41565b604051602001610f4f92919061312f565b604051602081830303815290604052611b41565b9050600081604051602001610f789190613174565b6040516020818303038152906040529050610fc76040518060400160405280601581526020017f0a2d2d2d2d2d2d2d2d2d2d2d2d2d2d2d2d2d2d2d2d0000000000000000000000815250611162565b610fef81604051602001610fdb91906130a7565b604051602081830303815290604052611162565b61102d6040518060400160405280601581526020017f2d2d2d2d2d2d2d2d2d2d2d2d2d2d2d2d2d2d2d2d0a0000000000000000000000815250611162565b6110373389611cff565b6110418882611d1d565b6110816040518060400160405280600f81526020017f2573206d696e74656420627920257300000000000000000000000000000000008152508933611d91565b61108b6007611e30565b7febb98688741ffa4c7589bf325de30cf7becb63de567842e1ccdb6cb949fdc82c33896040516110bc9291906131fd565b60405180910390a15050505050505050565b6000600560008473ffffffffffffffffffffffffffffffffffffffff1673ffffffffffffffffffffffffffffffffffffffff16815260200190815260200160002060008373ffffffffffffffffffffffffffffffffffffffff1673ffffffffffffffffffffffffffffffffffffffff16815260200190815260200160002060009054906101000a900460ff16905092915050565b6111f8816040516024016111769190613241565b6040516020818303038152906040527f41304fac000000000000000000000000000000000000000000000000000000007bffffffffffffffffffffffffffffffffffffffffffffffffffffffff19166020820180517bffffffffffffffffffffffffffffffffffffffffffffffffffffffff8381831617835250505050611e46565b50565b60007f01ffc9a7000000000000000000000000000000000000000000000000000000007bffffffffffffffffffffffffffffffffffffffffffffffffffffffff1916827bffffffffffffffffffffffffffffffffffffffffffffffffffffffff1916149050919050565b600081600001549050919050565b60008073ffffffffffffffffffffffffffffffffffffffff166002600084815260200190815260200160002060009054906101000a900473ffffffffffffffffffffffffffffffffffffffff1673ffffffffffffffffffffffffffffffffffffffff1614159050919050565b600033905090565b816004600083815260200190815260200160002060006101000a81548173ffffffffffffffffffffffffffffffffffffffff021916908373ffffffffffffffffffffffffffffffffffffffff160217905550808273ffffffffffffffffffffffffffffffffffffffff1661135a83610887565b73ffffffffffffffffffffffffffffffffffffffff167f8c5be1e5ebec7d5bd14f71427d1e84f3dd0314c0f7b2291e5b200ac8c7c3b92560405160405180910390a45050565b60006113ab82611273565b6113ea576040517f08c379a00000000000000000000000000000000000000000000000000000000081526004016113e190613321565b60405180910390fd5b60006113f583610887565b90508073ffffffffffffffffffffffffffffffffffffffff168473ffffffffffffffffffffffffffffffffffffffff16148061146457508373ffffffffffffffffffffffffffffffffffffffff1661144c8461054c565b73ffffffffffffffffffffffffffffffffffffffff16145b80611475575061147481856110ce565b5b91505092915050565b8273ffffffffffffffffffffffffffffffffffffffff1661149e82610887565b73ffffffffffffffffffffffffffffffffffffffff16146114f4576040517f08c379a00000000000000000000000000000000000000000000000000000000081526004016114eb90613421565b60405180910390fd5b600073ffffffffffffffffffffffffffffffffffffffff168273ffffffffffffffffffffffffffffffffffffffff161415611564576040517f08c379a000000000000000000000000000000000000000000000000000000000815260040161155b906132e1565b60405180910390fd5b61156f838383611e6f565b61157a6000826112e7565b6001600360008573ffffffffffffffffffffffffffffffffffffffff1673ffffffffffffffffffffffffffffffffffffffff16815260200190815260200160002060008282546115ca9190613656565b925050819055506001600360008473ffffffffffffffffffffffffffffffffffffffff1673ffffffffffffffffffffffffffffffffffffffff16815260200190815260200160002060008282546116219190613575565b92505081905550816002600083815260200190815260200160002060006101000a81548173ffffffffffffffffffffffffffffffffffffffff021916908373ffffffffffffffffffffffffffffffffffffffff160217905550808273ffffffffffffffffffffffffffffffffffffffff168473ffffffffffffffffffffffffffffffffffffffff167fddf252ad1be2c89b69c2b068fc378daa952ba7f163c4a11628f55a4df523b3ef60405160405180910390a4505050565b60606000821415611722576040518060400160405280600181526020017f30000000000000000000000000000000000000000000000000000000000000008152509050611882565b600082905060005b6000821461175457808061173d90613772565b915050600a8261174d91906135cb565b915061172a565b60008167ffffffffffffffff811115611796577f4e487b7100000000000000000000000000000000000000000000000000000000600052604160045260246000fd5b6040519080825280601f01601f1916602001820160405280156117c85781602001600182028036833780820191505090505b5090505b6000851461187b576001826117e19190613656565b9150600a856117f091906137bb565b60306117fc9190613575565b60f81b818381518110611838577f4e487b7100000000000000000000000000000000000000000000000000000000600052603260045260246000fd5b60200101907effffffffffffffffffffffffffffffffffffffffffffffffffffffffffffff1916908160001a905350600a8561187491906135cb565b94506117cc565b8093505050505b919050565b60008160405160200161189a9190612ff2565b6040516020818303038152906040528051906020012060001c9050919050565b8173ffffffffffffffffffffffffffffffffffffffff168373ffffffffffffffffffffffffffffffffffffffff161415611929576040517f08c379a000000000000000000000000000000000000000000000000000000000815260040161192090613301565b60405180910390fd5b80600560008573ffffffffffffffffffffffffffffffffffffffff1673ffffffffffffffffffffffffffffffffffffffff16815260200190815260200160002060008473ffffffffffffffffffffffffffffffffffffffff1673ffffffffffffffffffffffffffffffffffffffff16815260200190815260200160002060006101000a81548160ff0219169083151502179055508173ffffffffffffffffffffffffffffffffffffffff168373ffffffffffffffffffffffffffffffffffffffff167f17307eab39ab6107e8899845ad3d59bd9653f200f220920489ca2b5937696c3183604051611a1a9190613226565b60405180910390a3505050565b611a3284848461147e565b611a3e84848484611e74565b611a7d576040517f08c379a0000000000000000000000000000000000000000000000000000000008152600401611a74906132a1565b60405180910390fd5b50505050565b606060405180602001604052806000815250905090565b6060611aa582611273565b611ae4576040517f08c379a0000000000000000000000000000000000000000000000000000000008152600401611adb90613441565b60405180910390fd5b6000611aee611a83565b90506000815111611b0e5760405180602001604052806000815250611b39565b80611b18846116da565b604051602001611b29929190613009565b6040516020818303038152906040525b915050919050565b60606000825190506000811415611b6a5760405180602001604052806000815250915050611cfa565b60006003600283611b7b9190613575565b611b8591906135cb565b6004611b9191906135fc565b90506000602082611ba29190613575565b67ffffffffffffffff811115611be1577f4e487b7100000000000000000000000000000000000000000000000000000000600052604160045260246000fd5b6040519080825280601f01601f191660200182016040528015611c135781602001600182028036833780820191505090505b5090506000604051806060016040528060408152602001613916604091399050600181016020830160005b86811015611cb75760038101905062ffffff818a015116603f8160121c168401518060081b905060ff603f83600c1c1686015116810190508060081b905060ff603f8360061c1686015116810190508060081b905060ff603f831686015116810190508060e01b90508084526004840193505050611c3e565b506003860660018114611cd15760028114611ce157611cec565b613d3d60f01b6002830352611cec565b603d60f81b60018303525b508484525050819450505050505b919050565b611d1982826040518060200160405280600081525061200b565b5050565b611d2682611273565b611d65576040517f08c379a0000000000000000000000000000000000000000000000000000000008152600401611d5c906133a1565b60405180910390fd5b80600660008481526020019081526020016000209080519060200190611d8c929190612247565b505050565b611e2b838383604051602401611da993929190613263565b6040516020818303038152906040527fe3849f79000000000000000000000000000000000000000000000000000000007bffffffffffffffffffffffffffffffffffffffffffffffffffffffff19166020820180517bffffffffffffffffffffffffffffffffffffffffffffffffffffffff8381831617835250505050611e46565b505050565b6001816000016000828254019250508190555050565b60008151905060006a636f6e736f6c652e6c6f679050602083016000808483855afa5050505050565b505050565b6000611e958473ffffffffffffffffffffffffffffffffffffffff16612066565b15611ffe578373ffffffffffffffffffffffffffffffffffffffff1663150b7a02611ebe6112df565b8786866040518563ffffffff1660e01b8152600401611ee094939291906131b1565b602060405180830381600087803b158015611efa57600080fd5b505af1925050508015611f2b57506040513d601f19601f82011682018060405250810190611f28919061258b565b60015b611fae573d8060008114611f5b576040519150601f19603f3d011682016040523d82523d6000602084013e611f60565b606091505b50600081511415611fa6576040517f08c379a0000000000000000000000000000000000000000000000000000000008152600401611f9d906132a1565b60405180910390fd5b805181602001fd5b63150b7a0260e01b7bffffffffffffffffffffffffffffffffffffffffffffffffffffffff1916817bffffffffffffffffffffffffffffffffffffffffffffffffffffffff191614915050612003565b600190505b949350505050565b6120158383612079565b6120226000848484611e74565b612061576040517f08c379a0000000000000000000000000000000000000000000000000000000008152600401612058906132a1565b60405180910390fd5b505050565b600080823b905060008111915050919050565b600073ffffffffffffffffffffffffffffffffffffffff168273ffffffffffffffffffffffffffffffffffffffff1614156120e9576040517f08c379a00000000000000000000000000000000000000000000000000000000081526004016120e0906133c1565b60405180910390fd5b6120f281611273565b15612132576040517f08c379a0000000000000000000000000000000000000000000000000000000008152600401612129906132c1565b60405180910390fd5b61213e60008383611e6f565b6001600360008473ffffffffffffffffffffffffffffffffffffffff1673ffffffffffffffffffffffffffffffffffffffff168152602001908152602001600020600082825461218e9190613575565b92505081905550816002600083815260200190815260200160002060006101000a81548173ffffffffffffffffffffffffffffffffffffffff021916908373ffffffffffffffffffffffffffffffffffffffff160217905550808273ffffffffffffffffffffffffffffffffffffffff16600073ffffffffffffffffffffffffffffffffffffffff167fddf252ad1be2c89b69c2b068fc378daa952ba7f163c4a11628f55a4df523b3ef60405160405180910390a45050565b82805461225390613740565b90600052602060002090601f01602090048101928261227557600085556122bc565b82601f1061228e57805160ff19168380011785556122bc565b828001600101855582156122bc579182015b828111156122bb5782518255916020019190600101906122a0565b5b5090506122c991906122cd565b5090565b5b808211156122e65760008160009055506001016122ce565b5090565b60006122fd6122f8846134ed565b6134bc565b90508281526020810184848401111561231557600080fd5b6123208482856136fe565b509392505050565b600081359050612337816138b9565b92915050565b60008135905061234c816138d0565b92915050565b600081359050612361816138e7565b92915050565b600081519050612376816138e7565b92915050565b600082601f83011261238d57600080fd5b813561239d8482602086016122ea565b91505092915050565b6000813590506123b5816138fe565b92915050565b6000602082840312156123cd57600080fd5b60006123db84828501612328565b91505092915050565b600080604083850312156123f757600080fd5b600061240585828601612328565b925050602061241685828601612328565b9150509250929050565b60008060006060848603121561243557600080fd5b600061244386828701612328565b935050602061245486828701612328565b9250506040612465868287016123a6565b9150509250925092565b6000806000806080858703121561248557600080fd5b600061249387828801612328565b94505060206124a487828801612328565b93505060406124b5878288016123a6565b925050606085013567ffffffffffffffff8111156124d257600080fd5b6124de8782880161237c565b91505092959194509250565b600080604083850312156124fd57600080fd5b600061250b85828601612328565b925050602061251c8582860161233d565b9150509250929050565b6000806040838503121561253957600080fd5b600061254785828601612328565b9250506020612558858286016123a6565b9150509250929050565b60006020828403121561257457600080fd5b600061258284828501612352565b91505092915050565b60006020828403121561259d57600080fd5b60006125ab84828501612367565b91505092915050565b6000602082840312156125c657600080fd5b60006125d4848285016123a6565b91505092915050565b6125e68161368a565b82525050565b6125f58161369c565b82525050565b600061260682613532565b6126108185613548565b935061262081856020860161370d565b612629816138a8565b840191505092915050565b600061263f8261353d565b6126498185613559565b935061265981856020860161370d565b612662816138a8565b840191505092915050565b60006126788261353d565b612682818561356a565b935061269281856020860161370d565b80840191505092915050565b600081546126ab81613740565b6126b5818661356a565b945060018216600081146126d057600181146126e157612714565b60ff19831686528186019350612714565b6126ea8561351d565b60005b8381101561270c578154818901526001820191506020810190506126ed565b838801955050505b50505092915050565b600061272a60258361356a565b91507f68747470733a2f2f6e6674707265766965772e30786465762e636f6465732f3f60008301527f636f64653d0000000000000000000000000000000000000000000000000000006020830152602582019050919050565b6000612790603283613559565b91507f4552433732313a207472616e7366657220746f206e6f6e20455243373231526560008301527f63656976657220696d706c656d656e74657200000000000000000000000000006020830152604082019050919050565b60006127f6601c83613559565b91507f4552433732313a20746f6b656e20616c7265616479206d696e746564000000006000830152602082019050919050565b6000612836600a8361356a565b91507f54484952445f574f5244000000000000000000000000000000000000000000006000830152600a82019050919050565b6000612876602483613559565b91507f4552433732313a207472616e7366657220746f20746865207a65726f2061646460008301527f72657373000000000000000000000000000000000000000000000000000000006020830152604082019050919050565b60006128dc601983613559565b91507f4552433732313a20617070726f766520746f2063616c6c6572000000000000006000830152602082019050919050565b600061291c600b8361356a565b91507f5345434f4e445f574f52440000000000000000000000000000000000000000006000830152600b82019050919050565b600061295c602c83613559565b91507f4552433732313a206f70657261746f7220717565727920666f72206e6f6e657860008301527f697374656e7420746f6b656e00000000000000000000000000000000000000006020830152604082019050919050565b60006129c2600d8361356a565b91507f3c2f746578743e3c2f7376673e000000000000000000000000000000000000006000830152600d82019050919050565b6000612a02600a8361356a565b91507f46495253545f774f5244000000000000000000000000000000000000000000006000830152600a82019050919050565b6000612a4260738361356a565b91507f222c20226465736372697074696f6e223a20224120636f6c6c656374696f6e2060008301527f6f66205269636b2026204d6f7274792028706f74656e7469616c29206368617260208301527f6163746572206e616d65732e222c2022696d616765223a2022646174613a696d60408301527f6167652f7376672b786d6c3b6261736536342c000000000000000000000000006060830152607382019050919050565b6000612af4603883613559565b91507f4552433732313a20617070726f76652063616c6c6572206973206e6f74206f7760008301527f6e6572206e6f7220617070726f76656420666f7220616c6c00000000000000006020830152604082019050919050565b6000612b5a602a83613559565b91507f4552433732313a2062616c616e636520717565727920666f7220746865207a6560008301527f726f2061646472657373000000000000000000000000000000000000000000006020830152604082019050919050565b6000612bc0602983613559565b91507f4552433732313a206f776e657220717565727920666f72206e6f6e657869737460008301527f656e7420746f6b656e00000000000000000000000000000000000000000000006020830152604082019050919050565b6000612c26602e83613559565b91507f45524337323155524953746f726167653a2055524920736574206f66206e6f6e60008301527f6578697374656e7420746f6b656e0000000000000000000000000000000000006020830152604082019050919050565b6000612c8c60028361356a565b91507f227d0000000000000000000000000000000000000000000000000000000000006000830152600282019050919050565b6000612ccc602083613559565b91507f4552433732313a206d696e7420746f20746865207a65726f20616464726573736000830152602082019050919050565b6000612d0c603183613559565b91507f45524337323155524953746f726167653a2055524920717565727920666f722060008301527f6e6f6e6578697374656e7420746f6b656e0000000000000000000000000000006020830152604082019050919050565b6000612d72602c83613559565b91507f4552433732313a20617070726f76656420717565727920666f72206e6f6e657860008301527f697374656e7420746f6b656e00000000000000000000000000000000000000006020830152604082019050919050565b6000612dd8602983613559565b91507f4552433732313a207472616e73666572206f6620746f6b656e2074686174206960008301527f73206e6f74206f776e00000000000000000000000000000000000000000000006020830152604082019050919050565b6000612e3e602f83613559565b91507f4552433732314d657461646174613a2055524920717565727920666f72206e6f60008301527f6e6578697374656e7420746f6b656e00000000000000000000000000000000006020830152604082019050919050565b6000612ea4600a8361356a565b91507f7b226e616d65223a2022000000000000000000000000000000000000000000006000830152600a82019050919050565b6000612ee4602183613559565b91507f4552433732313a20617070726f76616c20746f2063757272656e74206f776e6560008301527f72000000000000000000000000000000000000000000000000000000000000006020830152604082019050919050565b6000612f4a601d8361356a565b91507f646174613a6170706c69636174696f6e2f6a736f6e3b6261736536342c0000006000830152601d82019050919050565b6000612f8a603183613559565b91507f4552433732313a207472616e736665722063616c6c6572206973206e6f74206f60008301527f776e6572206e6f7220617070726f7665640000000000000000000000000000006020830152604082019050919050565b612fec816136f4565b82525050565b6000612ffe828461266d565b915081905092915050565b6000613015828561266d565b9150613021828461266d565b91508190509392505050565b6000613039828661266d565b9150613045828561266d565b9150613051828461266d565b9150819050949350505050565b600061306a828761269e565b9150613076828661266d565b9150613082828561266d565b915061308e828461266d565b9150613099826129b5565b915081905095945050505050565b60006130b28261271d565b91506130be828461266d565b915081905092915050565b60006130d482612829565b91506130e0828461266d565b915081905092915050565b60006130f68261290f565b9150613102828461266d565b915081905092915050565b6000613118826129f5565b9150613124828461266d565b915081905092915050565b600061313a82612e97565b9150613146828561266d565b915061315182612a35565b915061315d828461266d565b915061316882612c7f565b91508190509392505050565b600061317f82612f3d565b915061318b828461266d565b915081905092915050565b60006020820190506131ab60008301846125dd565b92915050565b60006080820190506131c660008301876125dd565b6131d360208301866125dd565b6131e06040830185612fe3565b81810360608301526131f281846125fb565b905095945050505050565b600060408201905061321260008301856125dd565b61321f6020830184612fe3565b9392505050565b600060208201905061323b60008301846125ec565b92915050565b6000602082019050818103600083015261325b8184612634565b905092915050565b6000606082019050818103600083015261327d8186612634565b905061328c6020830185612fe3565b61329960408301846125dd565b949350505050565b600060208201905081810360008301526132ba81612783565b9050919050565b600060208201905081810360008301526132da816127e9565b9050919050565b600060208201905081810360008301526132fa81612869565b9050919050565b6000602082019050818103600083015261331a816128cf565b9050919050565b6000602082019050818103600083015261333a8161294f565b9050919050565b6000602082019050818103600083015261335a81612ae7565b9050919050565b6000602082019050818103600083015261337a81612b4d565b9050919050565b6000602082019050818103600083015261339a81612bb3565b9050919050565b600060208201905081810360008301526133ba81612c19565b9050919050565b600060208201905081810360008301526133da81612cbf565b9050919050565b600060208201905081810360008301526133fa81612cff565b9050919050565b6000602082019050818103600083015261341a81612d65565b9050919050565b6000602082019050818103600083015261343a81612dcb565b9050919050565b6000602082019050818103600083015261345a81612e31565b9050919050565b6000602082019050818103600083015261347a81612ed7565b9050919050565b6000602082019050818103600083015261349a81612f7d565b9050919050565b60006020820190506134b66000830184612fe3565b92915050565b6000604051905081810181811067ffffffffffffffff821117156134e3576134e2613879565b5b8060405250919050565b600067ffffffffffffffff82111561350857613507613879565b5b601f19601f8301169050602081019050919050565b60008190508160005260206000209050919050565b600081519050919050565b600081519050919050565b600082825260208201905092915050565b600082825260208201905092915050565b600081905092915050565b6000613580826136f4565b915061358b836136f4565b9250827fffffffffffffffffffffffffffffffffffffffffffffffffffffffffffffffff038211156135c0576135bf6137ec565b5b828201905092915050565b60006135d6826136f4565b91506135e1836136f4565b9250826135f1576135f061381b565b5b828204905092915050565b6000613607826136f4565b9150613612836136f4565b9250817fffffffffffffffffffffffffffffffffffffffffffffffffffffffffffffffff048311821515161561364b5761364a6137ec565b5b828202905092915050565b6000613661826136f4565b915061366c836136f4565b92508282101561367f5761367e6137ec565b5b828203905092915050565b6000613695826136d4565b9050919050565b60008115159050919050565b60007fffffffff0000000000000000000000000000000000000000000000000000000082169050919050565b600073ffffffffffffffffffffffffffffffffffffffff82169050919050565b6000819050919050565b82818337600083830152505050565b60005b8381101561372b578082015181840152602081019050613710565b8381111561373a576000848401525b50505050565b6000600282049050600182168061375857607f821691505b6020821081141561376c5761376b61384a565b5b50919050565b600061377d826136f4565b91507fffffffffffffffffffffffffffffffffffffffffffffffffffffffffffffffff8214156137b0576137af6137ec565b5b600182019050919050565b60006137c6826136f4565b91506137d1836136f4565b9250826137e1576137e061381b565b5b828206905092915050565b7f4e487b7100000000000000000000000000000000000000000000000000000000600052601160045260246000fd5b7f4e487b7100000000000000000000000000000000000000000000000000000000600052601260045260246000fd5b7f4e487b7100000000000000000000000000000000000000000000000000000000600052602260045260246000fd5b7f4e487b7100000000000000000000000000000000000000000000000000000000600052604160045260246000fd5b6000601f19601f8301169050919050565b6138c28161368a565b81146138cd57600080fd5b50565b6138d98161369c565b81146138e457600080fd5b50565b6138f0816136a8565b81146138fb57600080fd5b50565b613907816136f4565b811461391257600080fd5b5056fe4142434445464748494a4b4c4d4e4f505152535455565758595a6162636465666768696a6b6c6d6e6f707172737475767778797a303132333435363738392b2fa264697066735822122033bb8ea1b6aa573b62c6a732f9bf7ceef36774c8beeb4d78219592fd2faa59de64736f6c634300080000333c73766720786d6c6e733d27687474703a2f2f7777772e77332e6f72672f323030302f73766727207072657365727665417370656374526174696f3d27784d696e594d696e206d656574272076696577426f783d273020302033353020333530273e3c7374796c653e2e62617365207b2066696c6c3a20233031423443363b20666f6e742d66616d696c793a2073616e732d73657269663b20666f6e742d73697a653a20323470783b20666f6e742d7765696768743a3730303b7d3c2f7374796c653e3c726563742077696474683d273130302527206865696768743d2731303025272066696c6c3d272342454535464427202f3e3c7465787420783d273530252720793d273530252720636c6173733d27626173652720646f6d696e616e742d626173656c696e653d276d6964646c652720746578742d616e63686f723d276d6964646c65273e",
  "linkReferences": {},
  "deployedLinkReferences": {}
}