{
  "_format": "hh-sol-artifact-1",
  "contractName": "MyEpicNFT",
  "sourceName": "contracts/MyEpicNFT.sol",
  "abi": [
    {
      "inputs": [],
      "stateMutability": "nonpayable",
      "type": "constructor"
    },
    {
      "anonymous": false,
      "inputs": [
        {
          "indexed": true,
          "internalType": "address",
          "name": "owner",
          "type": "address"
        },
        {
          "indexed": true,
          "internalType": "address",
          "name": "approved",
          "type": "address"
        },
        {
          "indexed": true,
          "internalType": "uint256",
          "name": "tokenId",
          "type": "uint256"
        }
      ],
      "name": "Approval",
      "type": "event"
    },
    {
      "anonymous": false,
      "inputs": [
        {
          "indexed": true,
          "internalType": "address",
          "name": "owner",
          "type": "address"
        },
        {
          "indexed": true,
          "internalType": "address",
          "name": "operator",
          "type": "address"
        },
        {
          "indexed": false,
          "internalType": "bool",
          "name": "approved",
          "type": "bool"
        }
      ],
      "name": "ApprovalForAll",
      "type": "event"
    },
    {
      "anonymous": false,
      "inputs": [
        {
          "indexed": false,
          "internalType": "address",
          "name": "sender",
          "type": "address"
        },
        {
          "indexed": false,
          "internalType": "uint256",
          "name": "tokenId",
          "type": "uint256"
        }
      ],
      "name": "NewEpicNFTMinted",
      "type": "event"
    },
    {
      "anonymous": false,
      "inputs": [
        {
          "indexed": true,
          "internalType": "address",
          "name": "from",
          "type": "address"
        },
        {
          "indexed": true,
          "internalType": "address",
          "name": "to",
          "type": "address"
        },
        {
          "indexed": true,
          "internalType": "uint256",
          "name": "tokenId",
          "type": "uint256"
        }
      ],
      "name": "Transfer",
      "type": "event"
    },
    {
      "inputs": [
        {
          "internalType": "address",
          "name": "_nftOwner",
          "type": "address"
        }
      ],
      "name": "NFTsMetaDataByOwner",
      "outputs": [
        {
          "components": [
            {
              "internalType": "uint256",
              "name": "timestamp",
              "type": "uint256"
            },
            {
              "internalType": "uint256",
              "name": "tokenID",
              "type": "uint256"
            }
          ],
          "internalType": "struct MyEpicNFT.MetaData[]",
          "name": "",
          "type": "tuple[]"
        }
      ],
      "stateMutability": "view",
      "type": "function"
    },
    {
      "inputs": [
        {
          "internalType": "address",
          "name": "to",
          "type": "address"
        },
        {
          "internalType": "uint256",
          "name": "tokenId",
          "type": "uint256"
        }
      ],
      "name": "approve",
      "outputs": [],
      "stateMutability": "nonpayable",
      "type": "function"
    },
    {
      "inputs": [
        {
          "internalType": "address",
          "name": "owner",
          "type": "address"
        }
      ],
      "name": "balanceOf",
      "outputs": [
        {
          "internalType": "uint256",
          "name": "",
          "type": "uint256"
        }
      ],
      "stateMutability": "view",
      "type": "function"
    },
    {
      "inputs": [
        {
          "internalType": "uint256",
          "name": "tokenId",
          "type": "uint256"
        }
      ],
      "name": "getApproved",
      "outputs": [
        {
          "internalType": "address",
          "name": "",
          "type": "address"
        }
      ],
      "stateMutability": "view",
      "type": "function"
    },
    {
      "inputs": [],
      "name": "getTotalNFTsMintedSoFar",
      "outputs": [
        {
          "internalType": "uint256",
          "name": "",
          "type": "uint256"
        }
      ],
      "stateMutability": "view",
      "type": "function"
    },
    {
      "inputs": [
        {
          "internalType": "address",
          "name": "owner",
          "type": "address"
        },
        {
          "internalType": "address",
          "name": "operator",
          "type": "address"
        }
      ],
      "name": "isApprovedForAll",
      "outputs": [
        {
          "internalType": "bool",
          "name": "",
          "type": "bool"
        }
      ],
      "stateMutability": "view",
      "type": "function"
    },
    {
      "inputs": [
        {
          "internalType": "string",
          "name": "doodle",
          "type": "string"
        }
      ],
      "name": "makeAnEpicNFT",
      "outputs": [],
      "stateMutability": "nonpayable",
      "type": "function"
    },
    {
      "inputs": [],
      "name": "name",
      "outputs": [
        {
          "internalType": "string",
          "name": "",
          "type": "string"
        }
      ],
      "stateMutability": "view",
      "type": "function"
    },
    {
      "inputs": [
        {
          "internalType": "uint256",
          "name": "tokenId",
          "type": "uint256"
        }
      ],
      "name": "ownerOf",
      "outputs": [
        {
          "internalType": "address",
          "name": "",
          "type": "address"
        }
      ],
      "stateMutability": "view",
      "type": "function"
    },
    {
      "inputs": [
        {
          "internalType": "address",
          "name": "from",
          "type": "address"
        },
        {
          "internalType": "address",
          "name": "to",
          "type": "address"
        },
        {
          "internalType": "uint256",
          "name": "tokenId",
          "type": "uint256"
        }
      ],
      "name": "safeTransferFrom",
      "outputs": [],
      "stateMutability": "nonpayable",
      "type": "function"
    },
    {
      "inputs": [
        {
          "internalType": "address",
          "name": "from",
          "type": "address"
        },
        {
          "internalType": "address",
          "name": "to",
          "type": "address"
        },
        {
          "internalType": "uint256",
          "name": "tokenId",
          "type": "uint256"
        },
        {
          "internalType": "bytes",
          "name": "_data",
          "type": "bytes"
        }
      ],
      "name": "safeTransferFrom",
      "outputs": [],
      "stateMutability": "nonpayable",
      "type": "function"
    },
    {
      "inputs": [
        {
          "internalType": "address",
          "name": "operator",
          "type": "address"
        },
        {
          "internalType": "bool",
          "name": "approved",
          "type": "bool"
        }
      ],
      "name": "setApprovalForAll",
      "outputs": [],
      "stateMutability": "nonpayable",
      "type": "function"
    },
    {
      "inputs": [
        {
          "internalType": "bytes4",
          "name": "interfaceId",
          "type": "bytes4"
        }
      ],
      "name": "supportsInterface",
      "outputs": [
        {
          "internalType": "bool",
          "name": "",
          "type": "bool"
        }
      ],
      "stateMutability": "view",
      "type": "function"
    },
    {
      "inputs": [],
      "name": "symbol",
      "outputs": [
        {
          "internalType": "string",
          "name": "",
          "type": "string"
        }
      ],
      "stateMutability": "view",
      "type": "function"
    },
    {
      "inputs": [
        {
          "internalType": "uint256",
          "name": "tokenId",
          "type": "uint256"
        }
      ],
      "name": "tokenURI",
      "outputs": [
        {
          "internalType": "string",
          "name": "",
          "type": "string"
        }
      ],
      "stateMutability": "view",
      "type": "function"
    },
    {
      "inputs": [
        {
          "internalType": "address",
          "name": "from",
          "type": "address"
        },
        {
          "internalType": "address",
          "name": "to",
          "type": "address"
        },
        {
          "internalType": "uint256",
          "name": "tokenId",
          "type": "uint256"
        }
      ],
      "name": "transferFrom",
      "outputs": [],
      "stateMutability": "nonpayable",
      "type": "function"
    },
    {
      "inputs": [
        {
          "internalType": "address",
          "name": "",
          "type": "address"
        },
        {
          "internalType": "uint256",
          "name": "",
          "type": "uint256"
        }
      ],
      "name": "userNFTs",
      "outputs": [
        {
          "internalType": "uint256",
          "name": "timestamp",
          "type": "uint256"
        },
        {
          "internalType": "uint256",
          "name": "tokenID",
          "type": "uint256"
        }
      ],
      "stateMutability": "view",
      "type": "function"
    }
  ],
  "bytecode": "0x60806040523480156200001157600080fd5b506040518060400160405280600a81526020017f446f6f646c65204e4654000000000000000000000000000000000000000000008152506040518060400160405280600681526020017f444f4f444c450000000000000000000000000000000000000000000000000000815250816000908051906020019062000096929190620001eb565b508060019080519060200190620000af929190620001eb565b505050620000fd6040518060400160405280600881526020017f4e465420465457210000000000000000000000000000000000000000000000008152506200011f60201b62000f091760201c565b6032600860006101000a81548160ff021916908360ff160217905550620003c8565b620001bf81604051602401620001369190620002dc565b6040516020818303038152906040527f41304fac000000000000000000000000000000000000000000000000000000007bffffffffffffffffffffffffffffffffffffffffffffffffffffffff19166020820180517bffffffffffffffffffffffffffffffffffffffffffffffffffffffff8381831617835250505050620001c260201b60201c565b50565b60008151905060006a636f6e736f6c652e6c6f679050602083016000808483855afa5050505050565b828054620001f99062000352565b90600052602060002090601f0160209004810192826200021d576000855562000269565b82601f106200023857805160ff191683800117855562000269565b8280016001018555821562000269579182015b82811115620002685782518255916020019190600101906200024b565b5b5090506200027891906200027c565b5090565b5b80821115620002975760008160009055506001016200027d565b5090565b6000620002a88262000300565b620002b481856200030b565b9350620002c68185602086016200031c565b620002d181620003b7565b840191505092915050565b60006020820190508181036000830152620002f881846200029b565b905092915050565b600081519050919050565b600082825260208201905092915050565b60005b838110156200033c5780820151818401526020810190506200031f565b838111156200034c576000848401525b50505050565b600060028204905060018216806200036b57607f821691505b6020821081141562000382576200038162000388565b5b50919050565b7f4e487b7100000000000000000000000000000000000000000000000000000000600052602260045260246000fd5b6000601f19601f8301169050919050565b6136d280620003d86000396000f3fe608060405234801561001057600080fd5b506004361061010b5760003560e01c806342842e0e116100a257806395d89b411161007157806395d89b41146102dd578063a22cb465146102fb578063b88d4fde14610317578063c87b56dd14610333578063e985e9c5146103635761010b565b806342842e0e146102315780636352211e1461024d5780636c67a38d1461027d57806370a08231146102ad5761010b565b8063095ea7b3116100de578063095ea7b3146101ac57806323b872dd146101c8578063291c73c3146101e457806339fa8daf146102155761010b565b806301ffc9a714610110578063060475901461014057806306fdde031461015e578063081812fc1461017c575b600080fd5b61012a600480360381019061012591906123d7565b610393565b6040516101379190612ef0565b60405180910390f35b610148610475565b604051610155919061316b565b60405180910390f35b610166610498565b6040516101739190612f0b565b60405180910390f35b6101966004803603810190610191919061246a565b61052a565b6040516101a39190612e3e565b60405180910390f35b6101c660048036038101906101c1919061239b565b6105af565b005b6101e260048036038101906101dd9190612295565b6106c7565b005b6101fe60048036038101906101f9919061239b565b610727565b60405161020c929190613186565b60405180910390f35b61022f600480360381019061022a9190612429565b610768565b005b61024b60048036038101906102469190612295565b6109dd565b005b6102676004803603810190610262919061246a565b6109fd565b6040516102749190612e3e565b60405180910390f35b61029760048036038101906102929190612230565b610aaf565b6040516102a49190612ece565b60405180910390f35b6102c760048036038101906102c29190612230565b610b61565b6040516102d4919061316b565b60405180910390f35b6102e5610c19565b6040516102f29190612f0b565b60405180910390f35b6103156004803603810190610310919061235f565b610cab565b005b610331600480360381019061032c91906122e4565b610cc1565b005b61034d6004803603810190610348919061246a565b610d23565b60405161035a9190612f0b565b60405180910390f35b61037d60048036038101906103789190612259565b610e75565b60405161038a9190612ef0565b60405180910390f35b60007f80ac58cd000000000000000000000000000000000000000000000000000000007bffffffffffffffffffffffffffffffffffffffffffffffffffffffff1916827bffffffffffffffffffffffffffffffffffffffffffffffffffffffff1916148061045e57507f5b5e139f000000000000000000000000000000000000000000000000000000007bffffffffffffffffffffffffffffffffffffffffffffffffffffffff1916827bffffffffffffffffffffffffffffffffffffffffffffffffffffffff1916145b8061046e575061046d82610fa2565b5b9050919050565b6000610489610484600761100c565b61101a565b610493600761100c565b905090565b6060600080546104a790613487565b80601f01602080910402602001604051908101604052809291908181526020018280546104d390613487565b80156105205780601f106104f557610100808354040283529160200191610520565b820191906000526020600020905b81548152906001019060200180831161050357829003601f168201915b5050505050905090565b6000610535826110b3565b610574576040517f08c379a000000000000000000000000000000000000000000000000000000000815260040161056b906130cb565b60405180910390fd5b6004600083815260200190815260200160002060009054906101000a900473ffffffffffffffffffffffffffffffffffffffff169050919050565b60006105ba826109fd565b90508073ffffffffffffffffffffffffffffffffffffffff168373ffffffffffffffffffffffffffffffffffffffff16141561062b576040517f08c379a00000000000000000000000000000000000000000000000000000000081526004016106229061312b565b60405180910390fd5b8073ffffffffffffffffffffffffffffffffffffffff1661064a61111f565b73ffffffffffffffffffffffffffffffffffffffff16148061067957506106788161067361111f565b610e75565b5b6106b8576040517f08c379a00000000000000000000000000000000000000000000000000000000081526004016106af9061300b565b60405180910390fd5b6106c28383611127565b505050565b6106d86106d261111f565b826111e0565b610717576040517f08c379a000000000000000000000000000000000000000000000000000000000815260040161070e9061314b565b60405180910390fd5b6107228383836112be565b505050565b6009602052816000526040600020818154811061074357600080fd5b9060005260206000209060020201600091509150508060000154908060010154905082565b6000610774600761100c565b905060006040518060400160405280600a81526020017f446f6f646c65204e465400000000000000000000000000000000000000000000815250905060006107dc82856040516020016107c8929190612dd7565b60405160208183030381529060405261151a565b90506000816040516020016107f19190612e1c565b60405160208183030381529060405290506108406040518060400160405280601581526020017f0a2d2d2d2d2d2d2d2d2d2d2d2d2d2d2d2d2d2d2d2d0000000000000000000000815250610f09565b610868816040516020016108549190612db5565b604051602081830303815290604052610f09565b6108a66040518060400160405280601581526020017f2d2d2d2d2d2d2d2d2d2d2d2d2d2d2d2d2d2d2d2d0a0000000000000000000000815250610f09565b60006040518060400160405280428152602001868152509050600960003373ffffffffffffffffffffffffffffffffffffffff1673ffffffffffffffffffffffffffffffffffffffff1681526020019081526020016000208190806001815401808255809150506001900390600052602060002090600202016000909190919091506000820151816000015560208201518160010155505061094833866116d8565b61095285836116f6565b6109926040518060400160405280600f81526020017f2573206d696e7465642062792025730000000000000000000000000000000000815250863361176a565b61099c6007611809565b7febb98688741ffa4c7589bf325de30cf7becb63de567842e1ccdb6cb949fdc82c33866040516109cd929190612ea5565b60405180910390a1505050505050565b6109f883838360405180602001604052806000815250610cc1565b505050565b6000806002600084815260200190815260200160002060009054906101000a900473ffffffffffffffffffffffffffffffffffffffff169050600073ffffffffffffffffffffffffffffffffffffffff168173ffffffffffffffffffffffffffffffffffffffff161415610aa6576040517f08c379a0000000000000000000000000000000000000000000000000000000008152600401610a9d9061304b565b60405180910390fd5b80915050919050565b6060600960008373ffffffffffffffffffffffffffffffffffffffff1673ffffffffffffffffffffffffffffffffffffffff168152602001908152602001600020805480602002602001604051908101604052809291908181526020016000905b82821015610b5657838290600052602060002090600202016040518060400160405290816000820154815260200160018201548152505081526020019060010190610b10565b505050509050919050565b60008073ffffffffffffffffffffffffffffffffffffffff168273ffffffffffffffffffffffffffffffffffffffff161415610bd2576040517f08c379a0000000000000000000000000000000000000000000000000000000008152600401610bc99061302b565b60405180910390fd5b600360008373ffffffffffffffffffffffffffffffffffffffff1673ffffffffffffffffffffffffffffffffffffffff168152602001908152602001600020549050919050565b606060018054610c2890613487565b80601f0160208091040260200160405190810160405280929190818152602001828054610c5490613487565b8015610ca15780601f10610c7657610100808354040283529160200191610ca1565b820191906000526020600020905b815481529060010190602001808311610c8457829003601f168201915b5050505050905090565b610cbd610cb661111f565b838361181f565b5050565b610cd2610ccc61111f565b836111e0565b610d11576040517f08c379a0000000000000000000000000000000000000000000000000000000008152600401610d089061314b565b60405180910390fd5b610d1d8484848461198c565b50505050565b6060610d2e826110b3565b610d6d576040517f08c379a0000000000000000000000000000000000000000000000000000000008152600401610d64906130ab565b60405180910390fd5b6000600660008481526020019081526020016000208054610d8d90613487565b80601f0160208091040260200160405190810160405280929190818152602001828054610db990613487565b8015610e065780601f10610ddb57610100808354040283529160200191610e06565b820191906000526020600020905b815481529060010190602001808311610de957829003601f168201915b505050505090506000610e176119e8565b9050600081511415610e2d578192505050610e70565b600082511115610e62578082604051602001610e4a929190612d91565b60405160208183030381529060405292505050610e70565b610e6b846119ff565b925050505b919050565b6000600560008473ffffffffffffffffffffffffffffffffffffffff1673ffffffffffffffffffffffffffffffffffffffff16815260200190815260200160002060008373ffffffffffffffffffffffffffffffffffffffff1673ffffffffffffffffffffffffffffffffffffffff16815260200190815260200160002060009054906101000a900460ff16905092915050565b610f9f81604051602401610f1d9190612f0b565b6040516020818303038152906040527f41304fac000000000000000000000000000000000000000000000000000000007bffffffffffffffffffffffffffffffffffffffffffffffffffffffff19166020820180517bffffffffffffffffffffffffffffffffffffffffffffffffffffffff8381831617835250505050611aa6565b50565b60007f01ffc9a7000000000000000000000000000000000000000000000000000000007bffffffffffffffffffffffffffffffffffffffffffffffffffffffff1916827bffffffffffffffffffffffffffffffffffffffffffffffffffffffff1916149050919050565b600081600001549050919050565b6110b08160405160240161102e919061316b565b6040516020818303038152906040527ff5b1bba9000000000000000000000000000000000000000000000000000000007bffffffffffffffffffffffffffffffffffffffffffffffffffffffff19166020820180517bffffffffffffffffffffffffffffffffffffffffffffffffffffffff8381831617835250505050611aa6565b50565b60008073ffffffffffffffffffffffffffffffffffffffff166002600084815260200190815260200160002060009054906101000a900473ffffffffffffffffffffffffffffffffffffffff1673ffffffffffffffffffffffffffffffffffffffff1614159050919050565b600033905090565b816004600083815260200190815260200160002060006101000a81548173ffffffffffffffffffffffffffffffffffffffff021916908373ffffffffffffffffffffffffffffffffffffffff160217905550808273ffffffffffffffffffffffffffffffffffffffff1661119a836109fd565b73ffffffffffffffffffffffffffffffffffffffff167f8c5be1e5ebec7d5bd14f71427d1e84f3dd0314c0f7b2291e5b200ac8c7c3b92560405160405180910390a45050565b60006111eb826110b3565b61122a576040517f08c379a000000000000000000000000000000000000000000000000000000000815260040161122190612feb565b60405180910390fd5b6000611235836109fd565b90508073ffffffffffffffffffffffffffffffffffffffff168473ffffffffffffffffffffffffffffffffffffffff1614806112a457508373ffffffffffffffffffffffffffffffffffffffff1661128c8461052a565b73ffffffffffffffffffffffffffffffffffffffff16145b806112b557506112b48185610e75565b5b91505092915050565b8273ffffffffffffffffffffffffffffffffffffffff166112de826109fd565b73ffffffffffffffffffffffffffffffffffffffff1614611334576040517f08c379a000000000000000000000000000000000000000000000000000000000815260040161132b906130eb565b60405180910390fd5b600073ffffffffffffffffffffffffffffffffffffffff168273ffffffffffffffffffffffffffffffffffffffff1614156113a4576040517f08c379a000000000000000000000000000000000000000000000000000000000815260040161139b90612fab565b60405180910390fd5b6113af838383611acf565b6113ba600082611127565b6001600360008573ffffffffffffffffffffffffffffffffffffffff1673ffffffffffffffffffffffffffffffffffffffff168152602001908152602001600020600082825461140a919061339d565b925050819055506001600360008473ffffffffffffffffffffffffffffffffffffffff1673ffffffffffffffffffffffffffffffffffffffff168152602001908152602001600020600082825461146191906132bc565b92505081905550816002600083815260200190815260200160002060006101000a81548173ffffffffffffffffffffffffffffffffffffffff021916908373ffffffffffffffffffffffffffffffffffffffff160217905550808273ffffffffffffffffffffffffffffffffffffffff168473ffffffffffffffffffffffffffffffffffffffff167fddf252ad1be2c89b69c2b068fc378daa952ba7f163c4a11628f55a4df523b3ef60405160405180910390a4505050565b6060600082519050600081141561154357604051806020016040528060008152509150506116d3565b6000600360028361155491906132bc565b61155e9190613312565b600461156a9190613343565b9050600060208261157b91906132bc565b67ffffffffffffffff8111156115ba577f4e487b7100000000000000000000000000000000000000000000000000000000600052604160045260246000fd5b6040519080825280601f01601f1916602001820160405280156115ec5781602001600182028036833780820191505090505b509050600060405180606001604052806040815260200161365d604091399050600181016020830160005b868110156116905760038101905062ffffff818a015116603f8160121c168401518060081b905060ff603f83600c1c1686015116810190508060081b905060ff603f8360061c1686015116810190508060081b905060ff603f831686015116810190508060e01b90508084526004840193505050611617565b5060038606600181146116aa57600281146116ba576116c5565b613d3d60f01b60028303526116c5565b603d60f81b60018303525b508484525050819450505050505b919050565b6116f2828260405180602001604052806000815250611ad4565b5050565b6116ff826110b3565b61173e576040517f08c379a00000000000000000000000000000000000000000000000000000000081526004016117359061306b565b60405180910390fd5b80600660008481526020019081526020016000209080519060200190611765929190612054565b505050565b61180483838360405160240161178293929190612f2d565b6040516020818303038152906040527fe3849f79000000000000000000000000000000000000000000000000000000007bffffffffffffffffffffffffffffffffffffffffffffffffffffffff19166020820180517bffffffffffffffffffffffffffffffffffffffffffffffffffffffff8381831617835250505050611aa6565b505050565b6001816000016000828254019250508190555050565b8173ffffffffffffffffffffffffffffffffffffffff168373ffffffffffffffffffffffffffffffffffffffff16141561188e576040517f08c379a000000000000000000000000000000000000000000000000000000000815260040161188590612fcb565b60405180910390fd5b80600560008573ffffffffffffffffffffffffffffffffffffffff1673ffffffffffffffffffffffffffffffffffffffff16815260200190815260200160002060008473ffffffffffffffffffffffffffffffffffffffff1673ffffffffffffffffffffffffffffffffffffffff16815260200190815260200160002060006101000a81548160ff0219169083151502179055508173ffffffffffffffffffffffffffffffffffffffff168373ffffffffffffffffffffffffffffffffffffffff167f17307eab39ab6107e8899845ad3d59bd9653f200f220920489ca2b5937696c318360405161197f9190612ef0565b60405180910390a3505050565b6119978484846112be565b6119a384848484611b2f565b6119e2576040517f08c379a00000000000000000000000000000000000000000000000000000000081526004016119d990612f6b565b60405180910390fd5b50505050565b606060405180602001604052806000815250905090565b6060611a0a826110b3565b611a49576040517f08c379a0000000000000000000000000000000000000000000000000000000008152600401611a409061310b565b60405180910390fd5b6000611a536119e8565b90506000815111611a735760405180602001604052806000815250611a9e565b80611a7d84611cc6565b604051602001611a8e929190612d91565b6040516020818303038152906040525b915050919050565b60008151905060006a636f6e736f6c652e6c6f679050602083016000808483855afa5050505050565b505050565b611ade8383611e73565b611aeb6000848484611b2f565b611b2a576040517f08c379a0000000000000000000000000000000000000000000000000000000008152600401611b2190612f6b565b60405180910390fd5b505050565b6000611b508473ffffffffffffffffffffffffffffffffffffffff16612041565b15611cb9578373ffffffffffffffffffffffffffffffffffffffff1663150b7a02611b7961111f565b8786866040518563ffffffff1660e01b8152600401611b9b9493929190612e59565b602060405180830381600087803b158015611bb557600080fd5b505af1925050508015611be657506040513d601f19601f82011682018060405250810190611be39190612400565b60015b611c69573d8060008114611c16576040519150601f19603f3d011682016040523d82523d6000602084013e611c1b565b606091505b50600081511415611c61576040517f08c379a0000000000000000000000000000000000000000000000000000000008152600401611c5890612f6b565b60405180910390fd5b805181602001fd5b63150b7a0260e01b7bffffffffffffffffffffffffffffffffffffffffffffffffffffffff1916817bffffffffffffffffffffffffffffffffffffffffffffffffffffffff191614915050611cbe565b600190505b949350505050565b60606000821415611d0e576040518060400160405280600181526020017f30000000000000000000000000000000000000000000000000000000000000008152509050611e6e565b600082905060005b60008214611d40578080611d29906134b9565b915050600a82611d399190613312565b9150611d16565b60008167ffffffffffffffff811115611d82577f4e487b7100000000000000000000000000000000000000000000000000000000600052604160045260246000fd5b6040519080825280601f01601f191660200182016040528015611db45781602001600182028036833780820191505090505b5090505b60008514611e6757600182611dcd919061339d565b9150600a85611ddc9190613502565b6030611de891906132bc565b60f81b818381518110611e24577f4e487b7100000000000000000000000000000000000000000000000000000000600052603260045260246000fd5b60200101907effffffffffffffffffffffffffffffffffffffffffffffffffffffffffffff1916908160001a905350600a85611e609190613312565b9450611db8565b8093505050505b919050565b600073ffffffffffffffffffffffffffffffffffffffff168273ffffffffffffffffffffffffffffffffffffffff161415611ee3576040517f08c379a0000000000000000000000000000000000000000000000000000000008152600401611eda9061308b565b60405180910390fd5b611eec816110b3565b15611f2c576040517f08c379a0000000000000000000000000000000000000000000000000000000008152600401611f2390612f8b565b60405180910390fd5b611f3860008383611acf565b6001600360008473ffffffffffffffffffffffffffffffffffffffff1673ffffffffffffffffffffffffffffffffffffffff1681526020019081526020016000206000828254611f8891906132bc565b92505081905550816002600083815260200190815260200160002060006101000a81548173ffffffffffffffffffffffffffffffffffffffff021916908373ffffffffffffffffffffffffffffffffffffffff160217905550808273ffffffffffffffffffffffffffffffffffffffff16600073ffffffffffffffffffffffffffffffffffffffff167fddf252ad1be2c89b69c2b068fc378daa952ba7f163c4a11628f55a4df523b3ef60405160405180910390a45050565b600080823b905060008111915050919050565b82805461206090613487565b90600052602060002090601f01602090048101928261208257600085556120c9565b82601f1061209b57805160ff19168380011785556120c9565b828001600101855582156120c9579182015b828111156120c85782518255916020019190600101906120ad565b5b5090506120d691906120da565b5090565b5b808211156120f35760008160009055506001016120db565b5090565b600061210a612105846131e0565b6131af565b90508281526020810184848401111561212257600080fd5b61212d848285613445565b509392505050565b600061214861214384613210565b6131af565b90508281526020810184848401111561216057600080fd5b61216b848285613445565b509392505050565b60008135905061218281613600565b92915050565b60008135905061219781613617565b92915050565b6000813590506121ac8161362e565b92915050565b6000815190506121c18161362e565b92915050565b600082601f8301126121d857600080fd5b81356121e88482602086016120f7565b91505092915050565b600082601f83011261220257600080fd5b8135612212848260208601612135565b91505092915050565b60008135905061222a81613645565b92915050565b60006020828403121561224257600080fd5b600061225084828501612173565b91505092915050565b6000806040838503121561226c57600080fd5b600061227a85828601612173565b925050602061228b85828601612173565b9150509250929050565b6000806000606084860312156122aa57600080fd5b60006122b886828701612173565b93505060206122c986828701612173565b92505060406122da8682870161221b565b9150509250925092565b600080600080608085870312156122fa57600080fd5b600061230887828801612173565b945050602061231987828801612173565b935050604061232a8782880161221b565b925050606085013567ffffffffffffffff81111561234757600080fd5b612353878288016121c7565b91505092959194509250565b6000806040838503121561237257600080fd5b600061238085828601612173565b925050602061239185828601612188565b9150509250929050565b600080604083850312156123ae57600080fd5b60006123bc85828601612173565b92505060206123cd8582860161221b565b9150509250929050565b6000602082840312156123e957600080fd5b60006123f78482850161219d565b91505092915050565b60006020828403121561241257600080fd5b6000612420848285016121b2565b91505092915050565b60006020828403121561243b57600080fd5b600082013567ffffffffffffffff81111561245557600080fd5b612461848285016121f1565b91505092915050565b60006020828403121561247c57600080fd5b600061248a8482850161221b565b91505092915050565b600061249f8383612d44565b60408301905092915050565b6124b4816133d1565b82525050565b60006124c582613250565b6124cf818561327e565b93506124da83613240565b8060005b8381101561250b5781516124f28882612493565b97506124fd83613271565b9250506001810190506124de565b5085935050505092915050565b612521816133e3565b82525050565b60006125328261325b565b61253c818561328f565b935061254c818560208601613454565b612555816135ef565b840191505092915050565b600061256b82613266565b61257581856132a0565b9350612585818560208601613454565b61258e816135ef565b840191505092915050565b60006125a482613266565b6125ae81856132b1565b93506125be818560208601613454565b80840191505092915050565b60006125d76025836132b1565b91507f68747470733a2f2f6e6674707265766965772e30786465762e636f6465732f3f60008301527f636f64653d0000000000000000000000000000000000000000000000000000006020830152602582019050919050565b600061263d6032836132a0565b91507f4552433732313a207472616e7366657220746f206e6f6e20455243373231526560008301527f63656976657220696d706c656d656e74657200000000000000000000000000006020830152604082019050919050565b60006126a3601c836132a0565b91507f4552433732313a20746f6b656e20616c7265616479206d696e746564000000006000830152602082019050919050565b60006126e36024836132a0565b91507f4552433732313a207472616e7366657220746f20746865207a65726f2061646460008301527f72657373000000000000000000000000000000000000000000000000000000006020830152604082019050919050565b60006127496019836132a0565b91507f4552433732313a20617070726f766520746f2063616c6c6572000000000000006000830152602082019050919050565b6000612789602c836132a0565b91507f4552433732313a206f70657261746f7220717565727920666f72206e6f6e657860008301527f697374656e7420746f6b656e00000000000000000000000000000000000000006020830152604082019050919050565b60006127ef6038836132a0565b91507f4552433732313a20617070726f76652063616c6c6572206973206e6f74206f7760008301527f6e6572206e6f7220617070726f76656420666f7220616c6c00000000000000006020830152604082019050919050565b6000612855602a836132a0565b91507f4552433732313a2062616c616e636520717565727920666f7220746865207a6560008301527f726f2061646472657373000000000000000000000000000000000000000000006020830152604082019050919050565b60006128bb6029836132a0565b91507f4552433732313a206f776e657220717565727920666f72206e6f6e657869737460008301527f656e7420746f6b656e00000000000000000000000000000000000000000000006020830152604082019050919050565b6000612921602e836132a0565b91507f45524337323155524953746f726167653a2055524920736574206f66206e6f6e60008301527f6578697374656e7420746f6b656e0000000000000000000000000000000000006020830152604082019050919050565b60006129876002836132b1565b91507f227d0000000000000000000000000000000000000000000000000000000000006000830152600282019050919050565b60006129c76020836132a0565b91507f4552433732313a206d696e7420746f20746865207a65726f20616464726573736000830152602082019050919050565b6000612a076031836132a0565b91507f45524337323155524953746f726167653a2055524920717565727920666f722060008301527f6e6f6e6578697374656e7420746f6b656e0000000000000000000000000000006020830152604082019050919050565b6000612a6d602c836132a0565b91507f4552433732313a20617070726f76656420717565727920666f72206e6f6e657860008301527f697374656e7420746f6b656e00000000000000000000000000000000000000006020830152604082019050919050565b6000612ad3603c836132b1565b91507f222c20226465736372697074696f6e223a20224e46542063726561746564207760008301527f69746820444f4f444c45204e46542e222c2022696d616765223a2022000000006020830152603c82019050919050565b6000612b396029836132a0565b91507f4552433732313a207472616e73666572206f6620746f6b656e2074686174206960008301527f73206e6f74206f776e00000000000000000000000000000000000000000000006020830152604082019050919050565b6000612b9f602f836132a0565b91507f4552433732314d657461646174613a2055524920717565727920666f72206e6f60008301527f6e6578697374656e7420746f6b656e00000000000000000000000000000000006020830152604082019050919050565b6000612c05600a836132b1565b91507f7b226e616d65223a2022000000000000000000000000000000000000000000006000830152600a82019050919050565b6000612c456021836132a0565b91507f4552433732313a20617070726f76616c20746f2063757272656e74206f776e6560008301527f72000000000000000000000000000000000000000000000000000000000000006020830152604082019050919050565b6000612cab601d836132b1565b91507f646174613a6170706c69636174696f6e2f6a736f6e3b6261736536342c0000006000830152601d82019050919050565b6000612ceb6031836132a0565b91507f4552433732313a207472616e736665722063616c6c6572206973206e6f74206f60008301527f776e6572206e6f7220617070726f7665640000000000000000000000000000006020830152604082019050919050565b604082016000820151612d5a6000850182612d73565b506020820151612d6d6020850182612d73565b50505050565b612d7c8161343b565b82525050565b612d8b8161343b565b82525050565b6000612d9d8285612599565b9150612da98284612599565b91508190509392505050565b6000612dc0826125ca565b9150612dcc8284612599565b915081905092915050565b6000612de282612bf8565b9150612dee8285612599565b9150612df982612ac6565b9150612e058284612599565b9150612e108261297a565b91508190509392505050565b6000612e2782612c9e565b9150612e338284612599565b915081905092915050565b6000602082019050612e5360008301846124ab565b92915050565b6000608082019050612e6e60008301876124ab565b612e7b60208301866124ab565b612e886040830185612d82565b8181036060830152612e9a8184612527565b905095945050505050565b6000604082019050612eba60008301856124ab565b612ec76020830184612d82565b9392505050565b60006020820190508181036000830152612ee881846124ba565b905092915050565b6000602082019050612f056000830184612518565b92915050565b60006020820190508181036000830152612f258184612560565b905092915050565b60006060820190508181036000830152612f478186612560565b9050612f566020830185612d82565b612f6360408301846124ab565b949350505050565b60006020820190508181036000830152612f8481612630565b9050919050565b60006020820190508181036000830152612fa481612696565b9050919050565b60006020820190508181036000830152612fc4816126d6565b9050919050565b60006020820190508181036000830152612fe48161273c565b9050919050565b600060208201905081810360008301526130048161277c565b9050919050565b60006020820190508181036000830152613024816127e2565b9050919050565b6000602082019050818103600083015261304481612848565b9050919050565b60006020820190508181036000830152613064816128ae565b9050919050565b6000602082019050818103600083015261308481612914565b9050919050565b600060208201905081810360008301526130a4816129ba565b9050919050565b600060208201905081810360008301526130c4816129fa565b9050919050565b600060208201905081810360008301526130e481612a60565b9050919050565b6000602082019050818103600083015261310481612b2c565b9050919050565b6000602082019050818103600083015261312481612b92565b9050919050565b6000602082019050818103600083015261314481612c38565b9050919050565b6000602082019050818103600083015261316481612cde565b9050919050565b60006020820190506131806000830184612d82565b92915050565b600060408201905061319b6000830185612d82565b6131a86020830184612d82565b9392505050565b6000604051905081810181811067ffffffffffffffff821117156131d6576131d56135c0565b5b8060405250919050565b600067ffffffffffffffff8211156131fb576131fa6135c0565b5b601f19601f8301169050602081019050919050565b600067ffffffffffffffff82111561322b5761322a6135c0565b5b601f19601f8301169050602081019050919050565b6000819050602082019050919050565b600081519050919050565b600081519050919050565b600081519050919050565b6000602082019050919050565b600082825260208201905092915050565b600082825260208201905092915050565b600082825260208201905092915050565b600081905092915050565b60006132c78261343b565b91506132d28361343b565b9250827fffffffffffffffffffffffffffffffffffffffffffffffffffffffffffffffff0382111561330757613306613533565b5b828201905092915050565b600061331d8261343b565b91506133288361343b565b92508261333857613337613562565b5b828204905092915050565b600061334e8261343b565b91506133598361343b565b9250817fffffffffffffffffffffffffffffffffffffffffffffffffffffffffffffffff048311821515161561339257613391613533565b5b828202905092915050565b60006133a88261343b565b91506133b38361343b565b9250828210156133c6576133c5613533565b5b828203905092915050565b60006133dc8261341b565b9050919050565b60008115159050919050565b60007fffffffff0000000000000000000000000000000000000000000000000000000082169050919050565b600073ffffffffffffffffffffffffffffffffffffffff82169050919050565b6000819050919050565b82818337600083830152505050565b60005b83811015613472578082015181840152602081019050613457565b83811115613481576000848401525b50505050565b6000600282049050600182168061349f57607f821691505b602082108114156134b3576134b2613591565b5b50919050565b60006134c48261343b565b91507fffffffffffffffffffffffffffffffffffffffffffffffffffffffffffffffff8214156134f7576134f6613533565b5b600182019050919050565b600061350d8261343b565b91506135188361343b565b92508261352857613527613562565b5b828206905092915050565b7f4e487b7100000000000000000000000000000000000000000000000000000000600052601160045260246000fd5b7f4e487b7100000000000000000000000000000000000000000000000000000000600052601260045260246000fd5b7f4e487b7100000000000000000000000000000000000000000000000000000000600052602260045260246000fd5b7f4e487b7100000000000000000000000000000000000000000000000000000000600052604160045260246000fd5b6000601f19601f8301169050919050565b613609816133d1565b811461361457600080fd5b50565b613620816133e3565b811461362b57600080fd5b50565b613637816133ef565b811461364257600080fd5b50565b61364e8161343b565b811461365957600080fd5b5056fe4142434445464748494a4b4c4d4e4f505152535455565758595a6162636465666768696a6b6c6d6e6f707172737475767778797a303132333435363738392b2fa26469706673582212201411e911f059603b2038a209a7fd8eb7ca180d6e4de4802582a5d0e1e68bae7864736f6c63430008000033",
  "linkReferences": {},
  "deployedLinkReferences": {}
}